{
  "contractName": "blockChainMutual",
  "abi": [
    {
      "constant": true,
      "inputs": [],
      "name": "openClaimsCount",
      "outputs": [
        {
          "name": "",
          "type": "uint256"
        }
      ],
      "payable": false,
      "stateMutability": "view",
      "type": "function"
    },
    {
      "constant": true,
      "inputs": [
        {
          "name": "",
          "type": "address"
        }
      ],
      "name": "balances",
      "outputs": [
        {
          "name": "",
          "type": "uint256"
        }
      ],
      "payable": false,
      "stateMutability": "view",
      "type": "function"
    },
    {
      "constant": true,
      "inputs": [],
      "name": "owner",
      "outputs": [
        {
          "name": "",
          "type": "address"
        }
      ],
      "payable": false,
      "stateMutability": "view",
      "type": "function"
    },
    {
      "constant": true,
      "inputs": [],
      "name": "claimsCount",
      "outputs": [
        {
          "name": "",
          "type": "uint256"
        }
      ],
      "payable": false,
      "stateMutability": "view",
      "type": "function"
    },
    {
      "constant": true,
      "inputs": [],
      "name": "myself",
      "outputs": [
        {
          "name": "",
          "type": "address"
        }
      ],
      "payable": false,
      "stateMutability": "view",
      "type": "function"
    },
    {
      "constant": true,
      "inputs": [],
      "name": "policyCount",
      "outputs": [
        {
          "name": "",
          "type": "uint256"
        }
      ],
      "payable": false,
      "stateMutability": "view",
      "type": "function"
    },
    {
      "constant": true,
      "inputs": [],
      "name": "policyholdersCount",
      "outputs": [
        {
          "name": "",
          "type": "uint256"
        }
      ],
      "payable": false,
      "stateMutability": "view",
      "type": "function"
    },
    {
      "inputs": [],
      "payable": false,
      "stateMutability": "nonpayable",
      "type": "constructor"
    },
    {
      "anonymous": false,
      "inputs": [
        {
          "indexed": true,
          "name": "from",
          "type": "address"
        },
        {
          "indexed": true,
          "name": "to",
          "type": "address"
        },
        {
          "indexed": false,
          "name": "value",
          "type": "uint256"
        }
      ],
      "name": "Transfer",
      "type": "event"
    },
    {
      "anonymous": false,
      "inputs": [
        {
          "indexed": false,
          "name": "eventType",
          "type": "string"
        },
        {
          "indexed": false,
          "name": "id",
          "type": "uint256"
        },
        {
          "indexed": false,
          "name": "value",
          "type": "uint256"
        },
        {
          "indexed": false,
          "name": "from",
          "type": "address"
        },
        {
          "indexed": false,
          "name": "to",
          "type": "address"
        }
      ],
      "name": "BCMevent",
      "type": "event"
    },
    {
      "constant": false,
      "inputs": [
        {
          "name": "_to",
          "type": "address"
        },
        {
          "name": "_value",
          "type": "uint256"
        }
      ],
      "name": "transfer",
      "outputs": [],
      "payable": false,
      "stateMutability": "nonpayable",
      "type": "function"
    },
    {
      "constant": false,
      "inputs": [
        {
          "name": "_value",
          "type": "uint256"
        }
      ],
      "name": "withdrawal",
      "outputs": [],
      "payable": false,
      "stateMutability": "nonpayable",
      "type": "function"
    },
    {
      "constant": false,
      "inputs": [
        {
          "name": "_claimID",
          "type": "uint256"
        }
      ],
      "name": "payClaim",
      "outputs": [],
      "payable": false,
      "stateMutability": "nonpayable",
      "type": "function"
    },
    {
      "constant": true,
      "inputs": [
        {
          "name": "_owner",
          "type": "address"
        }
      ],
      "name": "balanceOf",
      "outputs": [
        {
          "name": "balance",
          "type": "uint256"
        }
      ],
      "payable": false,
      "stateMutability": "view",
      "type": "function"
    },
    {
      "constant": true,
      "inputs": [
        {
          "name": "id",
          "type": "address"
        }
      ],
      "name": "getPolicyholderData",
      "outputs": [
        {
          "name": "",
          "type": "bool"
        },
        {
          "name": "",
          "type": "bool"
        },
        {
          "name": "",
          "type": "bool"
        }
      ],
      "payable": false,
      "stateMutability": "view",
      "type": "function"
    },
    {
      "constant": true,
      "inputs": [
        {
          "name": "id",
          "type": "address"
        }
      ],
      "name": "getPolicyholderVotingRecord",
      "outputs": [
        {
          "name": "",
          "type": "uint256[2][]"
        }
      ],
      "payable": false,
      "stateMutability": "view",
      "type": "function"
    },
    {
      "constant": true,
      "inputs": [
        {
          "name": "id",
          "type": "address"
        }
      ],
      "name": "getPolicyholderClaimsData",
      "outputs": [
        {
          "name": "",
          "type": "uint256[2][]"
        }
      ],
      "payable": false,
      "stateMutability": "view",
      "type": "function"
    },
    {
      "constant": false,
      "inputs": [],
      "name": "buyPolicy",
      "outputs": [],
      "payable": false,
      "stateMutability": "nonpayable",
      "type": "function"
    },
    {
      "constant": false,
      "inputs": [],
      "name": "cancelPolicy",
      "outputs": [],
      "payable": false,
      "stateMutability": "nonpayable",
      "type": "function"
    },
    {
      "constant": false,
      "inputs": [],
      "name": "addPolicyholder",
      "outputs": [],
      "payable": false,
      "stateMutability": "nonpayable",
      "type": "function"
    },
    {
      "constant": false,
      "inputs": [],
      "name": "deletePolicyholder",
      "outputs": [],
      "payable": false,
      "stateMutability": "nonpayable",
      "type": "function"
    },
    {
      "constant": true,
      "inputs": [
        {
          "name": "claimID",
          "type": "uint256"
        },
        {
          "name": "id",
          "type": "address"
        }
      ],
      "name": "hasVoted",
      "outputs": [
        {
          "name": "",
          "type": "bool"
        }
      ],
      "payable": false,
      "stateMutability": "view",
      "type": "function"
    },
    {
      "constant": true,
      "inputs": [
        {
          "name": "claimID",
          "type": "uint256"
        }
      ],
      "name": "haveIVoted",
      "outputs": [
        {
          "name": "",
          "type": "bool"
        }
      ],
      "payable": false,
      "stateMutability": "view",
      "type": "function"
    },
    {
      "constant": true,
      "inputs": [
        {
          "name": "claimID",
          "type": "uint256"
        }
      ],
      "name": "getClaim",
      "outputs": [
        {
          "name": "",
          "type": "uint256"
        },
        {
          "name": "",
          "type": "address"
        },
        {
          "name": "",
          "type": "bool"
        },
        {
          "name": "",
          "type": "bool"
        },
        {
          "name": "",
          "type": "uint256"
        },
        {
          "name": "",
          "type": "uint256"
        },
        {
          "name": "",
          "type": "uint256"
        }
      ],
      "payable": false,
      "stateMutability": "view",
      "type": "function"
    },
    {
      "constant": true,
      "inputs": [],
      "name": "getOpenClaims",
      "outputs": [
        {
          "name": "",
          "type": "uint256"
        },
        {
          "name": "",
          "type": "uint256[]"
        }
      ],
      "payable": false,
      "stateMutability": "view",
      "type": "function"
    },
    {
      "constant": false,
      "inputs": [
        {
          "name": "_value",
          "type": "uint256"
        }
      ],
      "name": "submitClaim",
      "outputs": [],
      "payable": false,
      "stateMutability": "nonpayable",
      "type": "function"
    },
    {
      "constant": false,
      "inputs": [
        {
          "name": "claimID",
          "type": "uint256"
        },
        {
          "name": "result",
          "type": "bool"
        }
      ],
      "name": "claimVote",
      "outputs": [],
      "payable": false,
      "stateMutability": "nonpayable",
      "type": "function"
    },
    {
      "constant": false,
      "inputs": [
        {
          "name": "claimID",
          "type": "uint256"
        },
        {
          "name": "result",
          "type": "bool"
        }
      ],
      "name": "closeClaim",
      "outputs": [],
      "payable": false,
      "stateMutability": "nonpayable",
      "type": "function"
    },
    {
      "constant": false,
      "inputs": [],
      "name": "kill",
      "outputs": [],
      "payable": false,
      "stateMutability": "nonpayable",
      "type": "function"
    }
  ],
  "bytecode": "0x6080604052600060025560006003556000600455600060055534801561002457600080fd5b5060008033600160006101000a81548173ffffffffffffffffffffffffffffffffffffffff021916908373ffffffffffffffffffffffffffffffffffffffff1602179055506002915081600a0a620f424002905080600760003073ffffffffffffffffffffffffffffffffffffffff1673ffffffffffffffffffffffffffffffffffffffff16815260200190815260200160002081905550306000806101000a81548173ffffffffffffffffffffffffffffffffffffffff021916908373ffffffffffffffffffffffffffffffffffffffff1602179055505050612b5d8061010d6000396000f300608060405260043610610154576000357c0100000000000000000000000000000000000000000000000000000000900463ffffffff16806301b40d7c14610159578063197e3d2b1461017057806327e235e31461019b5780633c699bfa146101f257806341c0e1b51461020957806343859632146102205780634ef2cc00146102855780635aef24471461029c5780636aa14a961461033b57806370a08231146103685780637457a7ac146103bf578063835fc6ca146103d657806383f3ac62146104035780638da5cb5b14610474578063901e8a17146104cb578063a303e95e1461053e578063a9059cbb14610577578063ac37af1c146105c4578063ae676c2914610609578063bbd245ea14610642578063bf31b1311461066d578063c64db31a14610728578063d276fd93146107e3578063d70356cc1461083a578063de54d42914610867578063dea12fc714610892575b600080fd5b34801561016557600080fd5b5061016e6108bd565b005b34801561017c57600080fd5b50610185610a63565b6040518082815260200191505060405180910390f35b3480156101a757600080fd5b506101dc600480360381019080803573ffffffffffffffffffffffffffffffffffffffff169060200190929190505050610a69565b6040518082815260200191505060405180910390f35b3480156101fe57600080fd5b50610207610a81565b005b34801561021557600080fd5b5061021e610c83565b005b34801561022c57600080fd5b5061026b60048036038101908080359060200190929190803573ffffffffffffffffffffffffffffffffffffffff169060200190929190505050610d16565b604051808215151515815260200191505060405180910390f35b34801561029157600080fd5b5061029a610d81565b005b3480156102a857600080fd5b506102c760048036038101908080359060200190929190505050611094565b604051808881526020018773ffffffffffffffffffffffffffffffffffffffff1673ffffffffffffffffffffffffffffffffffffffff168152602001861515151581526020018515151515815260200184815260200183815260200182815260200197505050505050505060405180910390f35b34801561034757600080fd5b506103666004803603810190808035906020019092919050505061117d565b005b34801561037457600080fd5b506103a9600480360381019080803573ffffffffffffffffffffffffffffffffffffffff169060200190929190505050611453565b6040518082815260200191505060405180910390f35b3480156103cb57600080fd5b506103d461149c565b005b3480156103e257600080fd5b50610401600480360381019080803590602001909291905050506116f1565b005b34801561040f57600080fd5b50610444600480360381019080803573ffffffffffffffffffffffffffffffffffffffff169060200190929190505050611944565b60405180841515151581526020018315151515815260200182151515158152602001935050505060405180910390f35b34801561048057600080fd5b50610489611a46565b604051808273ffffffffffffffffffffffffffffffffffffffff1673ffffffffffffffffffffffffffffffffffffffff16815260200191505060405180910390f35b3480156104d757600080fd5b506104e0611a6c565b6040518083815260200180602001828103825283818151815260200191508051906020019060200280838360005b8381101561052957808201518184015260208101905061050e565b50505050905001935050505060405180910390f35b34801561054a57600080fd5b5061057560048036038101908080359060200190929190803515159060200190929190505050611acf565b005b34801561058357600080fd5b506105c2600480360381019080803573ffffffffffffffffffffffffffffffffffffffff16906020019092919080359060200190929190505050611d35565b005b3480156105d057600080fd5b506105ef60048036038101908080359060200190929190505050611f89565b604051808215151515815260200191505060405180910390f35b34801561061557600080fd5b5061064060048036038101908080359060200190929190803515159060200190929190505050611ff3565b005b34801561064e57600080fd5b5061065761241c565b6040518082815260200191505060405180910390f35b34801561067957600080fd5b506106ae600480360381019080803573ffffffffffffffffffffffffffffffffffffffff169060200190929190505050612422565b60405180806020018281038252838181518152602001915080516000925b8184101561071757828490602001906020020151600260200280838360005b838110156107065780820151818401526020810190506106eb565b5050505090500192600101926106cc565b925050509250505060405180910390f35b34801561073457600080fd5b50610769600480360381019080803573ffffffffffffffffffffffffffffffffffffffff1690602001909291905050506124f4565b60405180806020018281038252838181518152602001915080516000925b818410156107d257828490602001906020020151600260200280838360005b838110156107c15780820151818401526020810190506107a6565b505050509050019260010192610787565b925050509250505060405180910390f35b3480156107ef57600080fd5b506107f86125c6565b604051808273ffffffffffffffffffffffffffffffffffffffff1673ffffffffffffffffffffffffffffffffffffffff16815260200191505060405180910390f35b34801561084657600080fd5b50610865600480360381019080803590602001909291905050506125eb565b005b34801561087357600080fd5b5061087c612a62565b6040518082815260200191505060405180910390f35b34801561089e57600080fd5b506108a7612a68565b6040518082815260200191505060405180910390f35b600260008154809291906001900391905055506108e2306108dd33611453565b611d35565b600960003373ffffffffffffffffffffffffffffffffffffffff1673ffffffffffffffffffffffffffffffffffffffff168152602001908152602001600020600080820160006101000a81549060ff02191690556000820160016101000a81549060ff02191690556000820160026101000a81549060ff021916905560018201600061096e9190612a6e565b60028201600061097e9190612a6e565b50507f6a15b4244525c6f0d6e94113f09044faaf2a31dedc4a6083ff52814c83f9a3e3600080333060405180806020018681526020018581526020018473ffffffffffffffffffffffffffffffffffffffff1673ffffffffffffffffffffffffffffffffffffffff1681526020018373ffffffffffffffffffffffffffffffffffffffff1673ffffffffffffffffffffffffffffffffffffffff168152602001828103825260128152602001807f64656c657465506f6c696379686f6c64657200000000000000000000000000008152506020019550505050505060405180910390a1565b60055481565b60076020528060005260406000206000915090505481565b60006002600081548092919060010191905055506000600960003373ffffffffffffffffffffffffffffffffffffffff1673ffffffffffffffffffffffffffffffffffffffff16815260200190815260200160002060000160006101000a81548160ff0219169083151502179055506001600960003373ffffffffffffffffffffffffffffffffffffffff1673ffffffffffffffffffffffffffffffffffffffff16815260200190815260200160002060000160016101000a81548160ff0219169083151502179055506000600760003373ffffffffffffffffffffffffffffffffffffffff1673ffffffffffffffffffffffffffffffffffffffff168152602001908152602001600020819055507f6a15b4244525c6f0d6e94113f09044faaf2a31dedc4a6083ff52814c83f9a3e36002546000303360405180806020018681526020018581526020018473ffffffffffffffffffffffffffffffffffffffff1673ffffffffffffffffffffffffffffffffffffffff1681526020018373ffffffffffffffffffffffffffffffffffffffff1673ffffffffffffffffffffffffffffffffffffffff1681526020018281038252600f8152602001807f616464506f6c696379686f6c64657200000000000000000000000000000000008152506020019550505050505060405180910390a160649050610c80816116f1565b50565b600160009054906101000a900473ffffffffffffffffffffffffffffffffffffffff1673ffffffffffffffffffffffffffffffffffffffff163373ffffffffffffffffffffffffffffffffffffffff161415610d1457600160009054906101000a900473ffffffffffffffffffffffffffffffffffffffff1673ffffffffffffffffffffffffffffffffffffffff16ff5b565b60006008600084815260200190815260200160002060050160008373ffffffffffffffffffffffffffffffffffffffff1673ffffffffffffffffffffffffffffffffffffffff16815260200190815260200160002060009054906101000a900460ff16905092915050565b6001600960003373ffffffffffffffffffffffffffffffffffffffff1673ffffffffffffffffffffffffffffffffffffffff16815260200190815260200160002060000160016101000a81548160ff02191690831515021790551515610e75576040517f08c379a00000000000000000000000000000000000000000000000000000000081526004018080602001828103825260248152602001807f796f75206e65656420746f206265206120706f6c696379686f6c64657220666981526020017f727374210000000000000000000000000000000000000000000000000000000081525060400191505060405180910390fd5b6001600960003373ffffffffffffffffffffffffffffffffffffffff1673ffffffffffffffffffffffffffffffffffffffff16815260200190815260200160002060000160006101000a81548160ff02191690831515021790551515610f43576040517f08c379a00000000000000000000000000000000000000000000000000000000081526004018080602001828103825260188152602001807f796f7520646f6e27742068617665206120706f6c69637921000000000000000081525060200191505060405180910390fd5b6000600960003373ffffffffffffffffffffffffffffffffffffffff1673ffffffffffffffffffffffffffffffffffffffff16815260200190815260200160002060000160006101000a81548160ff021916908315150217905550600360008154809291906001900391905055507f6a15b4244525c6f0d6e94113f09044faaf2a31dedc4a6083ff52814c83f9a3e3600080333060405180806020018681526020018581526020018473ffffffffffffffffffffffffffffffffffffffff1673ffffffffffffffffffffffffffffffffffffffff1681526020018373ffffffffffffffffffffffffffffffffffffffff1673ffffffffffffffffffffffffffffffffffffffff168152602001828103825260128152602001807f706f6c69637943616e63656c6c6174696f6e00000000000000000000000000008152506020019550505050505060405180910390a1565b600080600080600080600087600860008a815260200190815260200160002060010160009054906101000a900473ffffffffffffffffffffffffffffffffffffffff16600860008b815260200190815260200160002060010160149054906101000a900460ff16600860008c815260200190815260200160002060010160159054906101000a900460ff16600860008d815260200190815260200160002060020154600860008e815260200190815260200160002060030154600860008f8152602001908152602001600020600401549650965096509650965096509650919395979092949650565b60046000815480929190600101919050555060056000815480929190600101919050555060066004549080600181540180825580915050906001820390600052602060002001600090919290919091505550600454600860006004548152602001908152602001600020600001819055503360086000600454815260200190815260200160002060010160006101000a81548173ffffffffffffffffffffffffffffffffffffffff021916908373ffffffffffffffffffffffffffffffffffffffff160217905550600060086000600454815260200190815260200160002060010160146101000a81548160ff021916908315150217905550600060086000600454815260200190815260200160002060010160156101000a81548160ff0219169083151502179055508060086000600454815260200190815260200160002060020181905550600060086000600454815260200190815260200160002060030181905550600060086000600454815260200190815260200160002060040181905550600160086000600454815260200190815260200160002060050160003373ffffffffffffffffffffffffffffffffffffffff1673ffffffffffffffffffffffffffffffffffffffff16815260200190815260200160002060006101000a81548160ff0219169083151502179055507f6a15b4244525c6f0d6e94113f09044faaf2a31dedc4a6083ff52814c83f9a3e360045482333060405180806020018681526020018581526020018473ffffffffffffffffffffffffffffffffffffffff1673ffffffffffffffffffffffffffffffffffffffff1681526020018373ffffffffffffffffffffffffffffffffffffffff1673ffffffffffffffffffffffffffffffffffffffff168152602001828103825260088152602001807f6e6577436c61696d0000000000000000000000000000000000000000000000008152506020019550505050505060405180910390a150565b6000600760008373ffffffffffffffffffffffffffffffffffffffff1673ffffffffffffffffffffffffffffffffffffffff168152602001908152602001600020549050919050565b60006001600960003373ffffffffffffffffffffffffffffffffffffffff1673ffffffffffffffffffffffffffffffffffffffff16815260200190815260200160002060000160016101000a81548160ff02191690831515021790551515611592576040517f08c379a00000000000000000000000000000000000000000000000000000000081526004018080602001828103825260248152602001807f796f75206e65656420746f206265206120706f6c696379686f6c64657220666981526020017f727374210000000000000000000000000000000000000000000000000000000081525060400191505060405180910390fd5b606490506115a03082611d35565b6001600960003373ffffffffffffffffffffffffffffffffffffffff1673ffffffffffffffffffffffffffffffffffffffff16815260200190815260200160002060000160006101000a81548160ff0219169083151502179055506003600081548092919060010191905055507f6a15b4244525c6f0d6e94113f09044faaf2a31dedc4a6083ff52814c83f9a3e3600082303360405180806020018681526020018581526020018473ffffffffffffffffffffffffffffffffffffffff1673ffffffffffffffffffffffffffffffffffffffff1681526020018373ffffffffffffffffffffffffffffffffffffffff1673ffffffffffffffffffffffffffffffffffffffff1681526020018281038252600e8152602001807f706f6c69637950757263686173650000000000000000000000000000000000008152506020019550505050505060405180910390a150565b80600760003073ffffffffffffffffffffffffffffffffffffffff1673ffffffffffffffffffffffffffffffffffffffff1681526020019081526020016000205403600760003073ffffffffffffffffffffffffffffffffffffffff1673ffffffffffffffffffffffffffffffffffffffff1681526020019081526020016000208190555080600760003373ffffffffffffffffffffffffffffffffffffffff1673ffffffffffffffffffffffffffffffffffffffff1681526020019081526020016000205401600760003373ffffffffffffffffffffffffffffffffffffffff1673ffffffffffffffffffffffffffffffffffffffff168152602001908152602001600020819055507f6a15b4244525c6f0d6e94113f09044faaf2a31dedc4a6083ff52814c83f9a3e3600082303360405180806020018681526020018581526020018473ffffffffffffffffffffffffffffffffffffffff1673ffffffffffffffffffffffffffffffffffffffff1681526020018373ffffffffffffffffffffffffffffffffffffffff1673ffffffffffffffffffffffffffffffffffffffff168152602001828103825260088152602001807f7472616e736665720000000000000000000000000000000000000000000000008152506020019550505050505060405180910390a13373ffffffffffffffffffffffffffffffffffffffff163073ffffffffffffffffffffffffffffffffffffffff167fddf252ad1be2c89b69c2b068fc378daa952ba7f163c4a11628f55a4df523b3ef836040518082815260200191505060405180910390a350565b6000806000600960008573ffffffffffffffffffffffffffffffffffffffff1673ffffffffffffffffffffffffffffffffffffffff16815260200190815260200160002060000160009054906101000a900460ff16600960008673ffffffffffffffffffffffffffffffffffffffff1673ffffffffffffffffffffffffffffffffffffffff16815260200190815260200160002060000160019054906101000a900460ff16600960008773ffffffffffffffffffffffffffffffffffffffff1673ffffffffffffffffffffffffffffffffffffffff16815260200190815260200160002060000160029054906101000a900460ff169250925092509193909250565b600160009054906101000a900473ffffffffffffffffffffffffffffffffffffffff1681565b60006060600554600680805480602002602001604051908101604052809291908181526020018280548015611ac057602002820191906000526020600020905b815481526020019060010190808311611aac575b50505050509050915091509091565b600060016008600085815260200190815260200160002060010160146101000a81548160ff021916908315150217905550816008600085815260200190815260200160002060010160156101000a81548160ff02191690831515021790555060009050600115158215151415611b6257611b48836125eb565b600860008481526020019081526020016000206002015490505b600860008481526020019081526020016000206000808201600090556001820160006101000a81549073ffffffffffffffffffffffffffffffffffffffff02191690556001820160146101000a81549060ff02191690556001820160156101000a81549060ff0219169055600282016000905560038201600090556004820160009055505060056000815480929190600190039190505550600660018403815481101515611c0c57fe5b90600052602060002001600090557f6a15b4244525c6f0d6e94113f09044faaf2a31dedc4a6083ff52814c83f9a3e38382306008600088815260200190815260200160002060010160009054906101000a900473ffffffffffffffffffffffffffffffffffffffff1660405180806020018681526020018581526020018473ffffffffffffffffffffffffffffffffffffffff1673ffffffffffffffffffffffffffffffffffffffff1681526020018373ffffffffffffffffffffffffffffffffffffffff1673ffffffffffffffffffffffffffffffffffffffff1681526020018281038252600b8152602001807f636c61696d436c6f7365640000000000000000000000000000000000000000008152506020019550505050505060405180910390a1505050565b80600760003373ffffffffffffffffffffffffffffffffffffffff1673ffffffffffffffffffffffffffffffffffffffff1681526020019081526020016000205403600760003373ffffffffffffffffffffffffffffffffffffffff1673ffffffffffffffffffffffffffffffffffffffff1681526020019081526020016000208190555080600760008473ffffffffffffffffffffffffffffffffffffffff1673ffffffffffffffffffffffffffffffffffffffff1681526020019081526020016000205401600760008473ffffffffffffffffffffffffffffffffffffffff1673ffffffffffffffffffffffffffffffffffffffff168152602001908152602001600020819055508173ffffffffffffffffffffffffffffffffffffffff163373ffffffffffffffffffffffffffffffffffffffff167fddf252ad1be2c89b69c2b068fc378daa952ba7f163c4a11628f55a4df523b3ef836040518082815260200191505060405180910390a37f6a15b4244525c6f0d6e94113f09044faaf2a31dedc4a6083ff52814c83f9a3e3600082338560405180806020018681526020018581526020018473ffffffffffffffffffffffffffffffffffffffff1673ffffffffffffffffffffffffffffffffffffffff1681526020018373ffffffffffffffffffffffffffffffffffffffff1673ffffffffffffffffffffffffffffffffffffffff168152602001828103825260088152602001807f7472616e736665720000000000000000000000000000000000000000000000008152506020019550505050505060405180910390a15050565b60006008600083815260200190815260200160002060050160003373ffffffffffffffffffffffffffffffffffffffff1673ffffffffffffffffffffffffffffffffffffffff16815260200190815260200160002060009054906101000a900460ff169050919050565b600080600015156008600086815260200190815260200160002060050160003373ffffffffffffffffffffffffffffffffffffffff1673ffffffffffffffffffffffffffffffffffffffff16815260200190815260200160002060009054906101000a900460ff16151514151561206957600080fd5b60011515600960003373ffffffffffffffffffffffffffffffffffffffff1673ffffffffffffffffffffffffffffffffffffffff16815260200190815260200160002060000160009054906101000a900460ff1615151415156120cb57600080fd5b60016008600086815260200190815260200160002060050160003373ffffffffffffffffffffffffffffffffffffffff1673ffffffffffffffffffffffffffffffffffffffff16815260200190815260200160002060006101000a81548160ff02191690831515021790555060008411801561214957506004548411155b151561215457600080fd5b60086000858152602001908152602001600020600401600081548092919060010191905055506001151583151514156121ae5760086000858152602001908152602001600020600301600081548092919060010191905055505b826121ba5760006121bd565b60015b60ff169150600960003373ffffffffffffffffffffffffffffffffffffffff1673ffffffffffffffffffffffffffffffffffffffff16815260200190815260200160002060020160408051908101604052808681526020018481525090806001815401808255809150509060018203906000526020600020906002020160009091929091909150906002612252929190612a92565b50507f6a15b4244525c6f0d6e94113f09044faaf2a31dedc4a6083ff52814c83f9a3e3848333600060405180806020018681526020018581526020018473ffffffffffffffffffffffffffffffffffffffff1673ffffffffffffffffffffffffffffffffffffffff1681526020018373ffffffffffffffffffffffffffffffffffffffff1673ffffffffffffffffffffffffffffffffffffffff168152602001828103825260098152602001807f636c61696d566f746500000000000000000000000000000000000000000000008152506020019550505050505060405180910390a16008600085815260200190815260200160002060030154600860008681526020019081526020016000206004015403905060026008600086815260200190815260200160002060030154101580156123bc57506002600860008681526020019081526020016000206003015460086000878152602001908152602001600020600401540311155b156123d1576123cc846001611acf565b612416565b6002600860008681526020019081526020016000206003015460086000878152602001908152602001600020600401540310151561241557612414846000611acf565b5b5b50505050565b60045481565b6060600960008373ffffffffffffffffffffffffffffffffffffffff1673ffffffffffffffffffffffffffffffffffffffff168152602001908152602001600020600201805480602002602001604051908101604052809291908181526020016000905b828210156124e957838290600052602060002090600202016002806020026040519081016040528092919082600280156124d5576020028201915b8154815260200190600101908083116124c1575b505050505081526020019060010190612486565b505050509050919050565b6060600960008373ffffffffffffffffffffffffffffffffffffffff1673ffffffffffffffffffffffffffffffffffffffff168152602001908152602001600020600101805480602002602001604051908101604052809291908181526020016000905b828210156125bb57838290600052602060002090600202016002806020026040519081016040528092919082600280156125a7576020028201915b815481526020019060010190808311612593575b505050505081526020019060010190612558565b505050509050919050565b6000809054906101000a900473ffffffffffffffffffffffffffffffffffffffff1681565b6000806008600084815260200190815260200160002060010160009054906101000a900473ffffffffffffffffffffffffffffffffffffffff1691506008600084815260200190815260200160002060020154905080600760003073ffffffffffffffffffffffffffffffffffffffff1673ffffffffffffffffffffffffffffffffffffffff1681526020019081526020016000205403600760003073ffffffffffffffffffffffffffffffffffffffff1673ffffffffffffffffffffffffffffffffffffffff1681526020019081526020016000208190555080600760008473ffffffffffffffffffffffffffffffffffffffff1673ffffffffffffffffffffffffffffffffffffffff1681526020019081526020016000205401600760008473ffffffffffffffffffffffffffffffffffffffff1673ffffffffffffffffffffffffffffffffffffffff168152602001908152602001600020819055508173ffffffffffffffffffffffffffffffffffffffff163073ffffffffffffffffffffffffffffffffffffffff167fddf252ad1be2c89b69c2b068fc378daa952ba7f163c4a11628f55a4df523b3ef836040518082815260200191505060405180910390a37f6a15b4244525c6f0d6e94113f09044faaf2a31dedc4a6083ff52814c83f9a3e3600082308560405180806020018681526020018581526020018473ffffffffffffffffffffffffffffffffffffffff1673ffffffffffffffffffffffffffffffffffffffff1681526020018373ffffffffffffffffffffffffffffffffffffffff1673ffffffffffffffffffffffffffffffffffffffff168152602001828103825260088152602001807f7472616e736665720000000000000000000000000000000000000000000000008152506020019550505050505060405180910390a16001600960008473ffffffffffffffffffffffffffffffffffffffff1673ffffffffffffffffffffffffffffffffffffffff16815260200190815260200160002060000160026101000a81548160ff021916908315150217905550600960008373ffffffffffffffffffffffffffffffffffffffff1673ffffffffffffffffffffffffffffffffffffffff1681526020019081526020016000206001016040805190810160405280858152602001838152509080600181540180825580915050906001820390600052602060002090600202016000909192909190915090600261297b929190612a92565b50507f6a15b4244525c6f0d6e94113f09044faaf2a31dedc4a6083ff52814c83f9a3e38382308560405180806020018681526020018581526020018473ffffffffffffffffffffffffffffffffffffffff1673ffffffffffffffffffffffffffffffffffffffff1681526020018373ffffffffffffffffffffffffffffffffffffffff1673ffffffffffffffffffffffffffffffffffffffff1681526020018281038252600c8152602001807f636c61696d5061796d656e7400000000000000000000000000000000000000008152506020019550505050505060405180910390a1505050565b60035481565b60025481565b5080546000825560020290600052602060002090810190612a8f9190612ad2565b50565b8260028101928215612ac1579160200282015b82811115612ac0578251825591602001919060010190612aa5565b5b509050612ace9190612afe565b5090565b612afb91905b80821115612af75760008181612aee9190612b23565b50600201612ad8565b5090565b90565b612b2091905b80821115612b1c576000816000905550600101612b04565b5090565b90565b5060008155600101600090555600a165627a7a723058206c66268339b1a85cffcd1c013d2121f19214195b83aa43d9282728d99403e3c40029",
  "source": "pragma solidity 0.4.24;\r\n\r\n// next we add the ability to submit a claim and vote on claims submitted\r\n// votes attract sureCoins\r\n\r\n\r\n\r\ncontract blockChainMutual {\r\n  address public myself;\r\n  address public owner;\r\n  //Store policyholder Count.. can't count it later in the blockchain\r\n  uint public policyholdersCount = 0;\r\n  uint public policyCount = 0;\r\n  // all claims filed\r\n  uint public claimsCount = 0;\r\n  // count of open claims, can just count the elements in js\r\n  uint public openClaimsCount = 0;\r\n  // open claims\r\n  uint[] openClaims;\r\n  mapping(address => uint) public balances; // List of user balances.\r\n  // the listing of claims\r\n  mapping(uint=> claim) claimsListing;\r\n  \r\n  struct claim {\r\n    uint id;\r\n    address submitter;\r\n    bool resolved; // whether the vote has happened\r\n    bool valid; // whether the claim is real\r\n    uint value; // amount claimed\r\n    uint votesFor; // votes in favor \r\n    uint votesCount; // all votes \r\n    mapping(address=>bool) voted; // the list of users that have voted on the claim\r\n  }\r\n  \r\n  // Constructor\r\n  \r\n  constructor () public {\r\n    owner = msg.sender;\r\n    uint decimals = 2;\r\n    uint INITIAL_SUPPLY = 1000000 * (10 ** decimals);    \r\n    balances[address(this)] = INITIAL_SUPPLY;\r\n    myself = address(this);\r\n  }\r\n  \r\n  event Transfer(address indexed from, address indexed to, uint value);\r\n  // record that we added or canceled a policy\r\n  event BCMevent(string eventType, uint id, uint value, address from, address to);\r\n  \r\n  function transfer(address _to, uint _value) public {\r\n    balances[msg.sender] = balances[msg.sender] - _value;\r\n    balances[_to] = balances[_to] + _value;\r\n    emit Transfer(msg.sender, _to, _value);\r\n    emit BCMevent('transfer', 0,_value, msg.sender, _to);\r\n  }\r\n\r\n  function withdrawal(uint _value) public {\r\n    \r\n    balances[address(this)] = balances[address(this)] - _value;\r\n    balances[msg.sender] = balances[msg.sender] + _value;\r\n    emit BCMevent('transfer', 0,_value, address(this), msg.sender);\r\n    emit Transfer(address(this), msg.sender, _value);\r\n  }\r\n\r\n  function payClaim (uint _claimID) public {\r\n    address claimant = claimsListing[_claimID].submitter;\r\n    uint claimValue = claimsListing[_claimID].value;\r\n    balances[address(this)] = balances[address(this)] - claimValue;\r\n    balances[claimant] = balances[claimant] + claimValue;\r\n    emit Transfer(address(this),claimant, claimValue);\r\n    emit BCMevent('transfer', 0,claimValue, address(this), claimant);\r\n    policyholders[claimant].claims=true;\r\n    policyholders[claimant].paidClaimsData.push([_claimID,claimValue]);\r\n    emit BCMevent('claimPayment', _claimID,claimValue, address(this), claimant);\r\n  }\r\n  \r\n  function balanceOf(address _owner) public constant returns (uint balance) {\r\n    return balances[_owner];\r\n  }\r\n  \r\n  // model a policy holder\r\n  struct policyholder {\r\n    bool current;\r\n    bool isExist;\r\n    bool claims;\r\n    uint[2][] paidClaimsData; // this will be claim number with value\r\n    uint[2][] votingRecord; // claimID with yes or no attached\r\n  }\r\n\r\n  mapping(address=> policyholder) policyholders;\r\n  \r\n  function getPolicyholderData (address id) public constant returns (bool, bool, bool) {\r\n    return (policyholders[id].current, policyholders[id].isExist,\r\n\t    policyholders[id].claims);\r\n  }\r\n  \r\n  function getPolicyholderVotingRecord (address id) public constant returns (uint[2][]) {\r\n    return (policyholders[id].votingRecord);\r\n  }\r\n  \r\n\r\n  function getPolicyholderClaimsData (address id) public constant returns (uint[2][]) {\r\n    return (policyholders[id].paidClaimsData);\r\n  }\r\n  \r\n  function buyPolicy () public {\r\n\r\n    require(policyholders[msg.sender].isExist=true, \"you need to be a policyholder first!\");\r\n    //require(balanceOf(msg.sender) > 100, \"you need 100 coins!\");\r\n    uint cost = 100;\r\n    transfer(address(this), cost);\r\n    policyholders[msg.sender].current=true;\r\n    policyCount ++;\r\n\r\n    // type, id, value, from, to\r\n    emit BCMevent('policyPurchase', 0, cost,address(this),msg.sender );\r\n  }\r\n  \r\n  function cancelPolicy () public {\r\n    require(policyholders[msg.sender].isExist=true, \"you need to be a policyholder first!\");\r\n    require(policyholders[msg.sender].current=true, \"you don't have a policy!\");\r\n\r\n    policyholders[msg.sender].current=false;\r\n    policyCount --;\r\n    //delete inForcePolicyholders[msg.sender];\r\n    // type, id, value, from, to\r\n    emit BCMevent('policyCancellation', 0, 0,msg.sender,address(this));\r\n  }\r\n  \r\n  function addPolicyholder () public {\r\n    policyholdersCount ++;\r\n    policyholders[msg.sender].current=false;\r\n    policyholders[msg.sender].isExist=true;\r\n    balances[msg.sender] = 0;\r\n    emit BCMevent('addPolicyholder', policyholdersCount, 0,address(this),msg.sender);\r\n    uint initialBalance = 100;\r\n    withdrawal(initialBalance);\r\n    \r\n    // type, id, value, from, to\r\n  }\r\n\r\n  function deletePolicyholder () public {\r\n    policyholdersCount --;\r\n    // dump the coins back into the bank\r\n    \r\n    transfer(address(this), balanceOf(msg.sender));\r\n    \r\n    delete policyholders[msg.sender];\r\n    emit BCMevent('deletePolicyholder', 0, 0,msg.sender,address(this));\r\n  }\r\n\r\n  \r\n  function hasVoted (uint claimID, address id) public constant returns (bool){\r\n    return (claimsListing[claimID].voted[id]);\r\n  }\r\n  \r\n  function haveIVoted (uint claimID) public constant returns (bool){\r\n    return (claimsListing[claimID].voted[msg.sender]);\r\n  }\r\n  \r\n  function getClaim (uint claimID) public constant returns (uint, address, bool, bool, uint, uint, uint)  {\r\n    return (claimID, claimsListing[claimID].submitter,claimsListing[claimID].resolved,claimsListing[claimID].valid,\r\n\t    claimsListing[claimID].value,claimsListing[claimID].votesFor,claimsListing[claimID].votesCount); \r\n  }\r\n  \r\n  function getOpenClaims () public constant returns (uint, uint[])  {\r\n    return (openClaimsCount, openClaims); \r\n  }\r\n  \r\n  function submitClaim (uint _value) public  {\r\n    \r\n    claimsCount ++;\r\n    openClaimsCount ++;\r\n\r\n    openClaims.push(claimsCount);    \r\n    claimsListing[claimsCount].id=claimsCount;\r\n    claimsListing[claimsCount].submitter=msg.sender;\r\n    claimsListing[claimsCount].resolved=false;\r\n    claimsListing[claimsCount].valid=false;\r\n    claimsListing[claimsCount].value=_value;\r\n    claimsListing[claimsCount].votesFor=0;\r\n    claimsListing[claimsCount].votesCount=0;\r\n    claimsListing[claimsCount].voted[msg.sender]=true; // so submitter can't vote!\r\n    \r\n    emit BCMevent('newClaim',claimsCount,_value,msg.sender, address(this));\r\n    // would be cool to put together an evaluation page that only the account ID holder can access.\r\n    // that will include the image and write-up of a submitted claim\r\n    // along with some policy information \r\n  }\r\n  \r\n  function claimVote (uint claimID, bool result) public {\r\n    // require that they haven't voted before\r\n    require(claimsListing[claimID].voted[msg.sender]==false); // this is a test of whether the address has voted\r\n    \r\n    // needs to be a policyholder!\r\n    require(policyholders[msg.sender].current==true);\r\n    \r\n    // record that voter has voted\r\n    claimsListing[claimID].voted[msg.sender]=true; \r\n    \r\n    // require a valid claim number\r\n    require(claimID > 0 && claimID <= claimsCount);\r\n    \r\n    // update candidate vote count\r\n    claimsListing[claimID].votesCount ++;\r\n    \r\n    // is it for or against?!\r\n    if (result == true){\r\n      claimsListing[claimID].votesFor ++;\r\n    }\r\n\r\n    uint voteResult = result ? 1 : 0;\r\n    policyholders[msg.sender].votingRecord.push([claimID,voteResult]);\r\n    \r\n    emit BCMevent('claimVote',claimID,voteResult,msg.sender,address(0));    \r\n    uint falseVotes;\r\n    falseVotes = claimsListing[claimID].votesCount-claimsListing[claimID].votesFor;\r\n    // if the number of positive votes is 2, we can close it down\r\n    if (claimsListing[claimID].votesFor >= 2 && (claimsListing[claimID].votesCount-claimsListing[claimID].votesFor) <= 2){\r\n      closeClaim(claimID, true);\r\n    }\r\n    \r\n    else if ((claimsListing[claimID].votesCount-claimsListing[claimID].votesFor) >=2){\r\n      closeClaim(claimID, false);\r\n      }\r\n  }\r\n  \r\n  function closeClaim  (uint claimID, bool result) public {\r\n    \tclaimsListing[claimID].resolved=true;\r\n\tclaimsListing[claimID].valid=result;\r\n\tuint value = 0;\r\n\tif (result == true) {\r\n\t  payClaim(claimID);\r\n\t  value=claimsListing[claimID].value;\r\n\t}\r\n\tdelete claimsListing[claimID];\r\n\topenClaimsCount --;\r\n\r\n\t// claim IDs start at 0\r\n\tdelete openClaims[claimID-1];\r\n\temit BCMevent('claimClosed',claimID,value,\r\n\t\t      address(this),claimsListing[claimID].submitter);\r\n  }\r\n  \r\n  // self destruct\r\n  function kill() public {\r\n    if(msg.sender == owner) selfdestruct(owner);\r\n  }\r\n\r\n}\r\n",
  "sourcePath": "C:\\Users\\davec\\projects\\sureCoin\\contracts\\blockchainmutual.sol",
  "compiler": {
    "name": "solc",
    "version": "0.4.24+commit.e67f0147.Emscripten.clang"
  },
  "schemaVersion": "2.0.1",
  "updatedAt": "2018-09-21T10:46:06.615Z"
}