{
  "contractName": "blockChainMutual",
  "abi": [
    {
      "constant": true,
      "inputs": [
        {
          "name": "",
          "type": "address"
        }
      ],
      "name": "policyholders",
      "outputs": [
        {
          "name": "current",
          "type": "bool"
        },
        {
          "name": "isExist",
          "type": "bool"
        }
      ],
      "payable": false,
      "stateMutability": "view",
      "type": "function"
    },
    {
      "constant": true,
      "inputs": [
        {
          "name": "",
          "type": "address"
        }
      ],
      "name": "balances",
      "outputs": [
        {
          "name": "",
          "type": "uint256"
        }
      ],
      "payable": false,
      "stateMutability": "view",
      "type": "function"
    },
    {
      "constant": true,
      "inputs": [],
      "name": "owner",
      "outputs": [
        {
          "name": "",
          "type": "address"
        }
      ],
      "payable": false,
      "stateMutability": "view",
      "type": "function"
    },
    {
      "constant": true,
      "inputs": [],
      "name": "myself",
      "outputs": [
        {
          "name": "",
          "type": "address"
        }
      ],
      "payable": false,
      "stateMutability": "view",
      "type": "function"
    },
    {
      "constant": true,
      "inputs": [],
      "name": "policyCount",
      "outputs": [
        {
          "name": "",
          "type": "uint256"
        }
      ],
      "payable": false,
      "stateMutability": "view",
      "type": "function"
    },
    {
      "constant": true,
      "inputs": [],
      "name": "policyholdersCount",
      "outputs": [
        {
          "name": "",
          "type": "uint256"
        }
      ],
      "payable": false,
      "stateMutability": "view",
      "type": "function"
    },
    {
      "inputs": [],
      "payable": false,
      "stateMutability": "nonpayable",
      "type": "constructor"
    },
    {
      "anonymous": false,
      "inputs": [
        {
          "indexed": true,
          "name": "from",
          "type": "address"
        },
        {
          "indexed": true,
          "name": "to",
          "type": "address"
        },
        {
          "indexed": false,
          "name": "value",
          "type": "uint256"
        }
      ],
      "name": "Transfer",
      "type": "event"
    },
    {
      "anonymous": false,
      "inputs": [],
      "name": "policyEvent",
      "type": "event"
    },
    {
      "constant": false,
      "inputs": [
        {
          "name": "_to",
          "type": "address"
        },
        {
          "name": "_value",
          "type": "uint256"
        }
      ],
      "name": "transfer",
      "outputs": [],
      "payable": false,
      "stateMutability": "nonpayable",
      "type": "function"
    },
    {
      "constant": false,
      "inputs": [
        {
          "name": "_value",
          "type": "uint256"
        }
      ],
      "name": "withdrawal",
      "outputs": [],
      "payable": false,
      "stateMutability": "nonpayable",
      "type": "function"
    },
    {
      "constant": true,
      "inputs": [
        {
          "name": "_owner",
          "type": "address"
        }
      ],
      "name": "balanceOf",
      "outputs": [
        {
          "name": "balance",
          "type": "uint256"
        }
      ],
      "payable": false,
      "stateMutability": "view",
      "type": "function"
    },
    {
      "constant": false,
      "inputs": [],
      "name": "buyPolicy",
      "outputs": [],
      "payable": false,
      "stateMutability": "nonpayable",
      "type": "function"
    },
    {
      "constant": false,
      "inputs": [],
      "name": "cancelPolicy",
      "outputs": [],
      "payable": false,
      "stateMutability": "nonpayable",
      "type": "function"
    },
    {
      "constant": false,
      "inputs": [],
      "name": "addPolicyholder",
      "outputs": [],
      "payable": false,
      "stateMutability": "nonpayable",
      "type": "function"
    },
    {
      "constant": false,
      "inputs": [],
      "name": "deletePolicyholder",
      "outputs": [],
      "payable": false,
      "stateMutability": "nonpayable",
      "type": "function"
    },
    {
      "constant": false,
      "inputs": [],
      "name": "kill",
      "outputs": [],
      "payable": false,
      "stateMutability": "nonpayable",
      "type": "function"
    }
  ],
  "bytecode": "0x60806040526000600255600060035534801561001a57600080fd5b5060008033600160006101000a81548173ffffffffffffffffffffffffffffffffffffffff021916908373ffffffffffffffffffffffffffffffffffffffff1602179055506002915081600a0a620f424002905080600460003073ffffffffffffffffffffffffffffffffffffffff1673ffffffffffffffffffffffffffffffffffffffff16815260200190815260200160002081905550306000806101000a81548173ffffffffffffffffffffffffffffffffffffffff021916908373ffffffffffffffffffffffffffffffffffffffff1602179055505050610e1e806101036000396000f3006080604052600436106100d0576000357c0100000000000000000000000000000000000000000000000000000000900463ffffffff16806301b40d7c146100d557806324e889ac146100ec57806327e235e3146101525780633c699bfa146101a957806341c0e1b5146101c05780634ef2cc00146101d757806370a08231146101ee5780637457a7ac14610245578063835fc6ca1461025c5780638da5cb5b14610289578063a9059cbb146102e0578063d276fd931461032d578063de54d42914610384578063dea12fc7146103af575b600080fd5b3480156100e157600080fd5b506100ea6103da565b005b3480156100f857600080fd5b5061012d600480360381019080803573ffffffffffffffffffffffffffffffffffffffff16906020019092919050505061046b565b6040518083151515158152602001821515151581526020019250505060405180910390f35b34801561015e57600080fd5b50610193600480360381019080803573ffffffffffffffffffffffffffffffffffffffff1690602001909291905050506104a9565b6040518082815260200191505060405180910390f35b3480156101b557600080fd5b506101be6104c1565b005b3480156101cc57600080fd5b506101d56105ed565b005b3480156101e357600080fd5b506101ec610680565b005b3480156101fa57600080fd5b5061022f600480360381019080803573ffffffffffffffffffffffffffffffffffffffff1690602001909291905050506108de565b6040518082815260200191505060405180910390f35b34801561025157600080fd5b5061025a610927565b005b34801561026857600080fd5b5061028760048036038101908080359060200190929190505050610ab6565b005b34801561029557600080fd5b5061029e610c28565b604051808273ffffffffffffffffffffffffffffffffffffffff1673ffffffffffffffffffffffffffffffffffffffff16815260200191505060405180910390f35b3480156102ec57600080fd5b5061032b600480360381019080803573ffffffffffffffffffffffffffffffffffffffff16906020019092919080359060200190929190505050610c4e565b005b34801561033957600080fd5b50610342610dc1565b604051808273ffffffffffffffffffffffffffffffffffffffff1673ffffffffffffffffffffffffffffffffffffffff16815260200191505060405180910390f35b34801561039057600080fd5b50610399610de6565b6040518082815260200191505060405180910390f35b3480156103bb57600080fd5b506103c4610dec565b6040518082815260200191505060405180910390f35b600260008154809291906001900391905055506103ff306103fa336108de565b610c4e565b600560003373ffffffffffffffffffffffffffffffffffffffff1673ffffffffffffffffffffffffffffffffffffffff168152602001908152602001600020600080820160006101000a81549060ff02191690556000820160016101000a81549060ff02191690555050565b60056020528060005260406000206000915090508060000160009054906101000a900460ff16908060000160019054906101000a900460ff16905082565b60046020528060005260406000206000915090505481565b600260008154809291906001019190505550604080519081016040528060001515815260200160011515815250600560003373ffffffffffffffffffffffffffffffffffffffff1673ffffffffffffffffffffffffffffffffffffffff16815260200190815260200160002060008201518160000160006101000a81548160ff02191690831515021790555060208201518160000160016101000a81548160ff0219169083151502179055509050506000600460003373ffffffffffffffffffffffffffffffffffffffff1673ffffffffffffffffffffffffffffffffffffffff168152602001908152602001600020819055506105bf6064610ab6565b7fe167dac298c7e8edb5742dfbf1f34445c30b85dfee2f531eba779c3934dd202760405160405180910390a1565b600160009054906101000a900473ffffffffffffffffffffffffffffffffffffffff1673ffffffffffffffffffffffffffffffffffffffff163373ffffffffffffffffffffffffffffffffffffffff16141561067e57600160009054906101000a900473ffffffffffffffffffffffffffffffffffffffff1673ffffffffffffffffffffffffffffffffffffffff16ff5b565b6001600560003373ffffffffffffffffffffffffffffffffffffffff1673ffffffffffffffffffffffffffffffffffffffff16815260200190815260200160002060000160016101000a81548160ff02191690831515021790551515610774576040517f08c379a00000000000000000000000000000000000000000000000000000000081526004018080602001828103825260248152602001807f796f75206e65656420746f206265206120706f6c696379686f6c64657220666981526020017f727374210000000000000000000000000000000000000000000000000000000081525060400191505060405180910390fd5b6001600560003373ffffffffffffffffffffffffffffffffffffffff1673ffffffffffffffffffffffffffffffffffffffff16815260200190815260200160002060000160006101000a81548160ff02191690831515021790551515610842576040517f08c379a00000000000000000000000000000000000000000000000000000000081526004018080602001828103825260188152602001807f796f7520646f6e27742068617665206120706f6c69637921000000000000000081525060200191505060405180910390fd5b6000600560003373ffffffffffffffffffffffffffffffffffffffff1673ffffffffffffffffffffffffffffffffffffffff16815260200190815260200160002060000160006101000a81548160ff021916908315150217905550600360008154809291906001900391905055507fe167dac298c7e8edb5742dfbf1f34445c30b85dfee2f531eba779c3934dd202760405160405180910390a1565b6000600460008373ffffffffffffffffffffffffffffffffffffffff1673ffffffffffffffffffffffffffffffffffffffff168152602001908152602001600020549050919050565b6001600560003373ffffffffffffffffffffffffffffffffffffffff1673ffffffffffffffffffffffffffffffffffffffff16815260200190815260200160002060000160016101000a81548160ff02191690831515021790551515610a1b576040517f08c379a00000000000000000000000000000000000000000000000000000000081526004018080602001828103825260248152602001807f796f75206e65656420746f206265206120706f6c696379686f6c64657220666981526020017f727374210000000000000000000000000000000000000000000000000000000081525060400191505060405180910390fd5b6001600560003373ffffffffffffffffffffffffffffffffffffffff1673ffffffffffffffffffffffffffffffffffffffff16815260200190815260200160002060000160006101000a81548160ff0219169083151502179055506003600081548092919060010191905055507fe167dac298c7e8edb5742dfbf1f34445c30b85dfee2f531eba779c3934dd202760405160405180910390a1565b80600460003073ffffffffffffffffffffffffffffffffffffffff1673ffffffffffffffffffffffffffffffffffffffff1681526020019081526020016000205403600460003073ffffffffffffffffffffffffffffffffffffffff1673ffffffffffffffffffffffffffffffffffffffff1681526020019081526020016000208190555080600460003373ffffffffffffffffffffffffffffffffffffffff1673ffffffffffffffffffffffffffffffffffffffff1681526020019081526020016000205401600460003373ffffffffffffffffffffffffffffffffffffffff1673ffffffffffffffffffffffffffffffffffffffff168152602001908152602001600020819055503373ffffffffffffffffffffffffffffffffffffffff163073ffffffffffffffffffffffffffffffffffffffff167fddf252ad1be2c89b69c2b068fc378daa952ba7f163c4a11628f55a4df523b3ef836040518082815260200191505060405180910390a350565b600160009054906101000a900473ffffffffffffffffffffffffffffffffffffffff1681565b80600460003373ffffffffffffffffffffffffffffffffffffffff1673ffffffffffffffffffffffffffffffffffffffff1681526020019081526020016000205403600460003373ffffffffffffffffffffffffffffffffffffffff1673ffffffffffffffffffffffffffffffffffffffff1681526020019081526020016000208190555080600460008473ffffffffffffffffffffffffffffffffffffffff1673ffffffffffffffffffffffffffffffffffffffff1681526020019081526020016000205401600460008473ffffffffffffffffffffffffffffffffffffffff1673ffffffffffffffffffffffffffffffffffffffff168152602001908152602001600020819055508173ffffffffffffffffffffffffffffffffffffffff163373ffffffffffffffffffffffffffffffffffffffff167fddf252ad1be2c89b69c2b068fc378daa952ba7f163c4a11628f55a4df523b3ef836040518082815260200191505060405180910390a35050565b6000809054906101000a900473ffffffffffffffffffffffffffffffffffffffff1681565b60035481565b600254815600a165627a7a7230582099a8912673ffe0f395d5c4830daf3d5745840ddf207487cc92fbd7a8aa514a6d0029",
  "source": "pragma solidity 0.4.24;\r\n\r\n// will need to specify the original holder of tokens, initial supply, token name and symbol\r\n// Then we need a way for people to get the tokens\r\n// that will mean calling this token contract from the main contract body\r\n\r\n// add a policyholder by paying our tokens in\r\n// keep an array for each policyholder\r\n// last digit on each array is whether they're current\r\n\r\n// now we need to issue the ICO upon creation of the company\r\n// then we can put a button on there that says \"buy sureCoins\"\r\n// then we build the ability to pay for a policy with sureCoins\r\n\r\n// later we'll build in the simulator for policyholder performance\r\n// we can have someone log their email address.. is there a way to hash that so I can't even see it?\r\n/*\r\ncontract sureCoin  {\r\n\r\n  constructor () public {\r\n    //bytes32 name = \"sureCoin\";\r\n    //bytes32 symbol = \"SCO\";\r\n    uint decimals = 2;\r\n    // million coins\r\n    uint INITIAL_SUPPLY = 1000000 * (10 ** decimals);\r\n    uint totalSupply = INITIAL_SUPPLY;\r\n    balances[msg.sender] = INITIAL_SUPPLY;\r\n  }\r\n  \r\n  mapping(address => uint) public balances; // List of user balances.\r\n  \r\n  event Transfer(address indexed from, address indexed to, uint value);\r\n  \r\n  function transfer(address _to, uint _value) public {\r\n    balances[msg.sender] = balances[msg.sender] - _value;\r\n    balances[_to] = balances[_to] + _value;\r\n    emit Transfer(msg.sender, _to, _value);\r\n  }\r\n  \r\n  function balanceOf(address _owner) public constant returns (uint balance) {\r\n    return balances[_owner];\r\n  }\r\n}\r\n*/\r\ncontract blockChainMutual {\r\n  address public myself;\r\n  address public owner;\r\n  //Store policyholder Count.. can't count it later in the blockchain\r\n  uint public policyholdersCount = 0;\r\n  uint public policyCount = 0;\r\n  mapping(address => uint) public balances; // List of user balances.\r\n  // this array will store the policyholders, including the current flag\r\n  mapping(address=> policyholder) public policyholders;\r\n  \r\n  // Constructor\r\n  constructor () public {\r\n    owner = msg.sender;\r\n    uint decimals = 2;\r\n    uint INITIAL_SUPPLY = 1000000 * (10 ** decimals);    \r\n    balances[address(this)] = INITIAL_SUPPLY;\r\n    myself = address(this);\r\n    // build a policy\r\n    //policyholdersCount ++;\r\n    //policyholders['0x2902c878f6e3EA44316b85f3167d2Ac74b31283a'] = policyholder(true, true);\r\n    \r\n  }\r\n  \r\n  event Transfer(address indexed from, address indexed to, uint value);\r\n  \r\n  function transfer(address _to, uint _value) public {\r\n    balances[msg.sender] = balances[msg.sender] - _value;\r\n    balances[_to] = balances[_to] + _value;\r\n    emit Transfer(msg.sender, _to, _value);\r\n  }\r\n\r\n  function withdrawal(uint _value) public {\r\n    \r\n    balances[address(this)] = balances[address(this)] - _value;\r\n    balances[msg.sender] = balances[msg.sender] + _value;\r\n    emit Transfer(address(this), msg.sender, _value);\r\n    \r\n  }\r\n  \r\n  function balanceOf(address _owner) public constant returns (uint balance) {\r\n    return balances[_owner];\r\n  }\r\n  \r\n  // model a policy holder\r\n  struct policyholder {\r\n    bool current;\r\n    bool isExist;\r\n  }\r\n\r\n  /*\r\n  function policyholderCheck () public constant returns (bool check) {\r\n    bool innerCheck = false;\r\n    if (policyholders[msg.sender].isExist) {\r\n      innerCheck = true;\r\n    }\r\n    \r\n    return innerCheck;\r\n    }\r\n  */\r\n  function buyPolicy () public {\r\n\r\n    require(policyholders[msg.sender].isExist=true, \"you need to be a policyholder first!\");\r\n    //require(balanceOf(msg.sender) > 100, \"you need 100 coins!\");\r\n    //transfer(address(this), 100);\r\n    policyholders[msg.sender].current=true;\r\n    policyCount ++;\r\n    //inForcePolicyholders[msg.sender]=true;\r\n    emit policyEvent();\r\n  }\r\n  \r\n  function cancelPolicy () public {\r\n    require(policyholders[msg.sender].isExist=true, \"you need to be a policyholder first!\");\r\n    require(policyholders[msg.sender].current=true, \"you don't have a policy!\");\r\n\r\n    policyholders[msg.sender].current=false;\r\n    policyCount --;\r\n    //delete inForcePolicyholders[msg.sender];\r\n    emit policyEvent();\r\n  }\r\n  \r\n  function addPolicyholder () public {\r\n    policyholdersCount ++;\r\n    policyholders[msg.sender] = policyholder({current:false, isExist:true});\r\n    balances[msg.sender] = 0;\r\n    withdrawal(100);\r\n    //inForcePolicyholders[msg.sender]=true;\r\n    emit policyEvent();\r\n  }\r\n\r\n  function deletePolicyholder () public {\r\n    policyholdersCount --;\r\n    // dump the coins back into the bank\r\n    transfer(address(this), balanceOf(msg.sender));\r\n    delete policyholders[msg.sender];\r\n    //inForcePolicyholders[msg.sender]=true;\r\n  }\r\n\r\n\r\n  \r\n  // store accounts that have voted\r\n  //mapping(address=> bool) public inForcePolicyholders;\r\n\r\n  // record that we added or canceled a policy\r\n  event policyEvent ();\r\n\r\n  // self destruct\r\n  function kill() public {\r\n    if(msg.sender == owner) selfdestruct(owner);\r\n  }\r\n\r\n}\r\n\r\n",
  "sourcePath": "C:\\Users\\davec\\projects\\sureCoin\\contracts\\blockchainmutual.sol",
  "compiler": {
    "name": "solc",
    "version": "0.4.24+commit.e67f0147.Emscripten.clang"
  },
  "schemaVersion": "2.0.1",
  "updatedAt": "2018-09-02T01:37:33.069Z"
}