{
  "contractName": "blockChainMutual",
  "abi": [
    {
      "constant": true,
      "inputs": [],
      "name": "openClaimsCount",
      "outputs": [
        {
          "name": "",
          "type": "uint256"
        }
      ],
      "payable": false,
      "stateMutability": "view",
      "type": "function"
    },
    {
      "constant": true,
      "inputs": [
        {
          "name": "",
          "type": "address"
        }
      ],
      "name": "balances",
      "outputs": [
        {
          "name": "",
          "type": "uint256"
        }
      ],
      "payable": false,
      "stateMutability": "view",
      "type": "function"
    },
    {
      "constant": true,
      "inputs": [],
      "name": "divBlockTime",
      "outputs": [
        {
          "name": "",
          "type": "uint256"
        }
      ],
      "payable": false,
      "stateMutability": "view",
      "type": "function"
    },
    {
      "constant": true,
      "inputs": [],
      "name": "dividendAmount",
      "outputs": [
        {
          "name": "",
          "type": "uint256"
        }
      ],
      "payable": false,
      "stateMutability": "view",
      "type": "function"
    },
    {
      "constant": true,
      "inputs": [],
      "name": "owner",
      "outputs": [
        {
          "name": "",
          "type": "address"
        }
      ],
      "payable": false,
      "stateMutability": "view",
      "type": "function"
    },
    {
      "constant": true,
      "inputs": [],
      "name": "claimsCount",
      "outputs": [
        {
          "name": "",
          "type": "uint256"
        }
      ],
      "payable": false,
      "stateMutability": "view",
      "type": "function"
    },
    {
      "constant": true,
      "inputs": [
        {
          "name": "",
          "type": "uint256"
        }
      ],
      "name": "portfolioData",
      "outputs": [
        {
          "name": "",
          "type": "uint256"
        }
      ],
      "payable": false,
      "stateMutability": "view",
      "type": "function"
    },
    {
      "constant": true,
      "inputs": [],
      "name": "myself",
      "outputs": [
        {
          "name": "",
          "type": "address"
        }
      ],
      "payable": false,
      "stateMutability": "view",
      "type": "function"
    },
    {
      "constant": true,
      "inputs": [],
      "name": "policyCount",
      "outputs": [
        {
          "name": "",
          "type": "uint256"
        }
      ],
      "payable": false,
      "stateMutability": "view",
      "type": "function"
    },
    {
      "constant": true,
      "inputs": [],
      "name": "policyholdersCount",
      "outputs": [
        {
          "name": "",
          "type": "uint256"
        }
      ],
      "payable": false,
      "stateMutability": "view",
      "type": "function"
    },
    {
      "inputs": [],
      "payable": false,
      "stateMutability": "nonpayable",
      "type": "constructor"
    },
    {
      "anonymous": false,
      "inputs": [
        {
          "indexed": true,
          "name": "from",
          "type": "address"
        },
        {
          "indexed": true,
          "name": "to",
          "type": "address"
        },
        {
          "indexed": false,
          "name": "value",
          "type": "uint256"
        }
      ],
      "name": "Transfer",
      "type": "event"
    },
    {
      "anonymous": false,
      "inputs": [
        {
          "indexed": false,
          "name": "eventType",
          "type": "string"
        },
        {
          "indexed": false,
          "name": "id",
          "type": "uint256"
        },
        {
          "indexed": false,
          "name": "value",
          "type": "uint256"
        },
        {
          "indexed": false,
          "name": "from",
          "type": "address"
        },
        {
          "indexed": false,
          "name": "to",
          "type": "address"
        }
      ],
      "name": "BCMevent",
      "type": "event"
    },
    {
      "constant": false,
      "inputs": [
        {
          "name": "_to",
          "type": "address"
        },
        {
          "name": "_value",
          "type": "uint256"
        }
      ],
      "name": "transfer",
      "outputs": [],
      "payable": false,
      "stateMutability": "nonpayable",
      "type": "function"
    },
    {
      "constant": false,
      "inputs": [
        {
          "name": "_value",
          "type": "uint256"
        }
      ],
      "name": "withdrawal",
      "outputs": [],
      "payable": false,
      "stateMutability": "nonpayable",
      "type": "function"
    },
    {
      "constant": false,
      "inputs": [
        {
          "name": "_claimID",
          "type": "uint256"
        }
      ],
      "name": "payClaim",
      "outputs": [],
      "payable": false,
      "stateMutability": "nonpayable",
      "type": "function"
    },
    {
      "constant": true,
      "inputs": [
        {
          "name": "_owner",
          "type": "address"
        }
      ],
      "name": "balanceOf",
      "outputs": [
        {
          "name": "balance",
          "type": "uint256"
        }
      ],
      "payable": false,
      "stateMutability": "view",
      "type": "function"
    },
    {
      "constant": true,
      "inputs": [],
      "name": "getPolicyholderList",
      "outputs": [
        {
          "name": "",
          "type": "address[]"
        }
      ],
      "payable": false,
      "stateMutability": "view",
      "type": "function"
    },
    {
      "constant": true,
      "inputs": [
        {
          "name": "addy",
          "type": "address"
        }
      ],
      "name": "getPolicyholderData",
      "outputs": [
        {
          "name": "",
          "type": "bool"
        },
        {
          "name": "",
          "type": "bool"
        },
        {
          "name": "",
          "type": "bool"
        },
        {
          "name": "",
          "type": "uint256"
        },
        {
          "name": "",
          "type": "uint256"
        }
      ],
      "payable": false,
      "stateMutability": "view",
      "type": "function"
    },
    {
      "constant": true,
      "inputs": [
        {
          "name": "addy",
          "type": "address"
        }
      ],
      "name": "getPolicyholderVotingRecord",
      "outputs": [
        {
          "name": "",
          "type": "uint256[2][]"
        }
      ],
      "payable": false,
      "stateMutability": "view",
      "type": "function"
    },
    {
      "constant": true,
      "inputs": [
        {
          "name": "addy",
          "type": "address"
        }
      ],
      "name": "getPolicyholderClaimsData",
      "outputs": [
        {
          "name": "",
          "type": "uint256[2][]"
        }
      ],
      "payable": false,
      "stateMutability": "view",
      "type": "function"
    },
    {
      "constant": true,
      "inputs": [],
      "name": "getPortfolioData",
      "outputs": [
        {
          "name": "",
          "type": "uint256"
        },
        {
          "name": "",
          "type": "uint256"
        },
        {
          "name": "",
          "type": "uint256"
        }
      ],
      "payable": false,
      "stateMutability": "view",
      "type": "function"
    },
    {
      "constant": false,
      "inputs": [],
      "name": "buyPolicy",
      "outputs": [],
      "payable": false,
      "stateMutability": "nonpayable",
      "type": "function"
    },
    {
      "constant": false,
      "inputs": [],
      "name": "cancelPolicy",
      "outputs": [],
      "payable": false,
      "stateMutability": "nonpayable",
      "type": "function"
    },
    {
      "constant": false,
      "inputs": [],
      "name": "addPolicyholder",
      "outputs": [],
      "payable": false,
      "stateMutability": "nonpayable",
      "type": "function"
    },
    {
      "constant": false,
      "inputs": [],
      "name": "deletePolicyholder",
      "outputs": [],
      "payable": false,
      "stateMutability": "nonpayable",
      "type": "function"
    },
    {
      "constant": true,
      "inputs": [
        {
          "name": "claimID",
          "type": "uint256"
        },
        {
          "name": "id",
          "type": "address"
        }
      ],
      "name": "hasVoted",
      "outputs": [
        {
          "name": "",
          "type": "bool"
        }
      ],
      "payable": false,
      "stateMutability": "view",
      "type": "function"
    },
    {
      "constant": true,
      "inputs": [
        {
          "name": "claimID",
          "type": "uint256"
        }
      ],
      "name": "haveIVoted",
      "outputs": [
        {
          "name": "",
          "type": "bool"
        }
      ],
      "payable": false,
      "stateMutability": "view",
      "type": "function"
    },
    {
      "constant": true,
      "inputs": [
        {
          "name": "claimID",
          "type": "uint256"
        }
      ],
      "name": "getClaim",
      "outputs": [
        {
          "name": "",
          "type": "uint256"
        },
        {
          "name": "",
          "type": "address"
        },
        {
          "name": "",
          "type": "bool"
        },
        {
          "name": "",
          "type": "bool"
        },
        {
          "name": "",
          "type": "uint256"
        },
        {
          "name": "",
          "type": "uint256"
        },
        {
          "name": "",
          "type": "uint256"
        }
      ],
      "payable": false,
      "stateMutability": "view",
      "type": "function"
    },
    {
      "constant": true,
      "inputs": [],
      "name": "getOpenClaims",
      "outputs": [
        {
          "name": "",
          "type": "uint256"
        },
        {
          "name": "",
          "type": "uint256[]"
        }
      ],
      "payable": false,
      "stateMutability": "view",
      "type": "function"
    },
    {
      "constant": false,
      "inputs": [
        {
          "name": "_value",
          "type": "uint256"
        }
      ],
      "name": "submitClaim",
      "outputs": [],
      "payable": false,
      "stateMutability": "nonpayable",
      "type": "function"
    },
    {
      "constant": false,
      "inputs": [],
      "name": "issueDividend",
      "outputs": [],
      "payable": false,
      "stateMutability": "nonpayable",
      "type": "function"
    },
    {
      "constant": false,
      "inputs": [
        {
          "name": "claimID",
          "type": "uint256"
        },
        {
          "name": "result",
          "type": "bool"
        }
      ],
      "name": "claimVote",
      "outputs": [],
      "payable": false,
      "stateMutability": "nonpayable",
      "type": "function"
    },
    {
      "constant": false,
      "inputs": [
        {
          "name": "claimID",
          "type": "uint256"
        },
        {
          "name": "result",
          "type": "bool"
        }
      ],
      "name": "closeClaim",
      "outputs": [],
      "payable": false,
      "stateMutability": "nonpayable",
      "type": "function"
    },
    {
      "constant": false,
      "inputs": [],
      "name": "kill",
      "outputs": [],
      "payable": false,
      "stateMutability": "nonpayable",
      "type": "function"
    }
  ],
  "bytecode": "0x60806040526000600255600060045560006005556000600655600a8055610e10600b5534801561002e57600080fd5b5060008033600160006101000a81548173ffffffffffffffffffffffffffffffffffffffff021916908373ffffffffffffffffffffffffffffffffffffffff1602179055506002915081600a0a620f424002905080600860003073ffffffffffffffffffffffffffffffffffffffff1673ffffffffffffffffffffffffffffffffffffffff16815260200190815260200160002081905550306000806101000a81548173ffffffffffffffffffffffffffffffffffffffff021916908373ffffffffffffffffffffffffffffffffffffffff1602179055505050612e3d806101176000396000f300608060405260043610610196576000357c0100000000000000000000000000000000000000000000000000000000900463ffffffff16806301b40d7c1461019b578063197e3d2b146101b25780632426d2e7146101dd57806327e235e3146102495780632b2f403e146102a05780633bbdb86c146102d95780633c699bfa1461030457806341c0e1b51461031b5780634272f72614610332578063438596321461035d5780634ef2cc00146103c2578063506aaede146103d95780635aef2447146103f05780636aa14a961461048f57806370a08231146104bc5780637457a7ac14610513578063835fc6ca1461052a57806383f3ac62146105575780638da5cb5b146105d6578063901e8a171461062d578063a303e95e146106a0578063a9059cbb146106d9578063ac37af1c14610726578063ae676c291461076b578063bbd245ea146107a4578063bf31b131146107cf578063c64db31a1461088a578063cd7da43414610945578063d276fd9314610986578063d70356cc146109dd578063de54d42914610a0a578063dea12fc714610a35575b600080fd5b3480156101a757600080fd5b506101b0610a60565b005b3480156101be57600080fd5b506101c7610c97565b6040518082815260200191505060405180910390f35b3480156101e957600080fd5b506101f2610c9d565b6040518080602001828103825283818151815260200191508051906020019060200280838360005b8381101561023557808201518184015260208101905061021a565b505050509050019250505060405180910390f35b34801561025557600080fd5b5061028a600480360381019080803573ffffffffffffffffffffffffffffffffffffffff169060200190929190505050610d2b565b6040518082815260200191505060405180910390f35b3480156102ac57600080fd5b506102b5610d43565b60405180848152602001838152602001828152602001935050505060405180910390f35b3480156102e557600080fd5b506102ee610d89565b6040518082815260200191505060405180910390f35b34801561031057600080fd5b50610319610d8f565b005b34801561032757600080fd5b50610330611087565b005b34801561033e57600080fd5b5061034761111a565b6040518082815260200191505060405180910390f35b34801561036957600080fd5b506103a860048036038101908080359060200190929190803573ffffffffffffffffffffffffffffffffffffffff169060200190929190505050611120565b604051808215151515815260200191505060405180910390f35b3480156103ce57600080fd5b506103d761118b565b005b3480156103e557600080fd5b506103ee61149e565b005b3480156103fc57600080fd5b5061041b60048036038101908080359060200190929190505050611650565b604051808881526020018773ffffffffffffffffffffffffffffffffffffffff1673ffffffffffffffffffffffffffffffffffffffff168152602001861515151581526020018515151515815260200184815260200183815260200182815260200197505050505050505060405180910390f35b34801561049b57600080fd5b506104ba60048036038101908080359060200190929190505050611739565b005b3480156104c857600080fd5b506104fd600480360381019080803573ffffffffffffffffffffffffffffffffffffffff169060200190929190505050611a0f565b6040518082815260200191505060405180910390f35b34801561051f57600080fd5b50610528611a58565b005b34801561053657600080fd5b5061055560048036038101908080359060200190929190505050611ccc565b005b34801561056357600080fd5b50610598600480360381019080803573ffffffffffffffffffffffffffffffffffffffff169060200190929190505050611cda565b604051808615151515815260200185151515158152602001841515151581526020018381526020018281526020019550505050505060405180910390f35b3480156105e257600080fd5b506105eb611e6b565b604051808273ffffffffffffffffffffffffffffffffffffffff1673ffffffffffffffffffffffffffffffffffffffff16815260200191505060405180910390f35b34801561063957600080fd5b50610642611e91565b6040518083815260200180602001828103825283818151815260200191508051906020019060200280838360005b8381101561068b578082015181840152602081019050610670565b50505050905001935050505060405180910390f35b3480156106ac57600080fd5b506106d760048036038101908080359060200190929190803515159060200190929190505050611ef4565b005b3480156106e557600080fd5b50610724600480360381019080803573ffffffffffffffffffffffffffffffffffffffff1690602001909291908035906020019092919050505061215a565b005b34801561073257600080fd5b5061075160048036038101908080359060200190929190505050612169565b604051808215151515815260200191505060405180910390f35b34801561077757600080fd5b506107a2600480360381019080803590602001909291908035151590602001909291905050506121d3565b005b3480156107b057600080fd5b506107b96125fc565b6040518082815260200191505060405180910390f35b3480156107db57600080fd5b50610810600480360381019080803573ffffffffffffffffffffffffffffffffffffffff169060200190929190505050612602565b60405180806020018281038252838181518152602001915080516000925b8184101561087957828490602001906020020151600260200280838360005b8381101561086857808201518184015260208101905061084d565b50505050905001926001019261082e565b925050509250505060405180910390f35b34801561089657600080fd5b506108cb600480360381019080803573ffffffffffffffffffffffffffffffffffffffff1690602001909291905050506126d4565b60405180806020018281038252838181518152602001915080516000925b8184101561093457828490602001906020020151600260200280838360005b83811015610923578082015181840152602081019050610908565b5050505090500192600101926108e9565b925050509250505060405180910390f35b34801561095157600080fd5b50610970600480360381019080803590602001909291905050506127a6565b6040518082815260200191505060405180910390f35b34801561099257600080fd5b5061099b6127c0565b604051808273ffffffffffffffffffffffffffffffffffffffff1673ffffffffffffffffffffffffffffffffffffffff16815260200191505060405180910390f35b3480156109e957600080fd5b50610a08600480360381019080803590602001909291905050506127e5565b005b348015610a1657600080fd5b50610a1f612a36565b6040518082815260200191505060405180910390f35b348015610a4157600080fd5b50610a4a612a3c565b6040518082815260200191505060405180910390f35b610a7230610a6d33611a0f565b61215a565b60036001600f60003373ffffffffffffffffffffffffffffffffffffffff1673ffffffffffffffffffffffffffffffffffffffff1681526020019081526020016000206004015403815481101515610ac657fe5b9060005260206000200160006101000a81549073ffffffffffffffffffffffffffffffffffffffff0219169055600f60003373ffffffffffffffffffffffffffffffffffffffff1673ffffffffffffffffffffffffffffffffffffffff168152602001908152602001600020600080820160006101000a81549060ff02191690556000820160016101000a81549060ff02191690556000820160026101000a81549060ff0219169055600182016000610b7f9190612d4e565b600282016000610b8f9190612d4e565b600382016000905560048201600090555050600260008154809291906001900391905055507f6a15b4244525c6f0d6e94113f09044faaf2a31dedc4a6083ff52814c83f9a3e3600080333060405180806020018681526020018581526020018473ffffffffffffffffffffffffffffffffffffffff1673ffffffffffffffffffffffffffffffffffffffff1681526020018373ffffffffffffffffffffffffffffffffffffffff1673ffffffffffffffffffffffffffffffffffffffff168152602001828103825260128152602001807f64656c657465506f6c696379686f6c64657200000000000000000000000000008152506020019550505050505060405180910390a1565b60065481565b60606003805480602002602001604051908101604052809291908181526020018280548015610d2157602002820191906000526020600020905b8160009054906101000a900473ffffffffffffffffffffffffffffffffffffffff1673ffffffffffffffffffffffffffffffffffffffff1681526020019060010190808311610cd7575b5050505050905090565b60086020528060005260406000206000915090505481565b6000806000600c6000600381101515610d5857fe5b0154600c6001600381101515610d6a57fe5b0154600c6002600381101515610d7c57fe5b0154925092509250909192565b600b5481565b60006002600081548092919060010191905055506000600f60003373ffffffffffffffffffffffffffffffffffffffff1673ffffffffffffffffffffffffffffffffffffffff16815260200190815260200160002060000160006101000a81548160ff0219169083151502179055506001600f60003373ffffffffffffffffffffffffffffffffffffffff1673ffffffffffffffffffffffffffffffffffffffff16815260200190815260200160002060000160016101000a81548160ff0219169083151502179055506000600860003373ffffffffffffffffffffffffffffffffffffffff1673ffffffffffffffffffffffffffffffffffffffff16815260200190815260200160002081905550600254600f60003373ffffffffffffffffffffffffffffffffffffffff1673ffffffffffffffffffffffffffffffffffffffff1681526020019081526020016000206004018190555060033390806001815401808255809150509060018203906000526020600020016000909192909190916101000a81548173ffffffffffffffffffffffffffffffffffffffff021916908373ffffffffffffffffffffffffffffffffffffffff160217905550507f6a15b4244525c6f0d6e94113f09044faaf2a31dedc4a6083ff52814c83f9a3e36002546000303360405180806020018681526020018581526020018473ffffffffffffffffffffffffffffffffffffffff1673ffffffffffffffffffffffffffffffffffffffff1681526020018373ffffffffffffffffffffffffffffffffffffffff1673ffffffffffffffffffffffffffffffffffffffff1681526020018281038252600f8152602001807f616464506f6c696379686f6c64657200000000000000000000000000000000008152506020019550505050505060405180910390a16064905061103d81611ccc565b42600f60003373ffffffffffffffffffffffffffffffffffffffff1673ffffffffffffffffffffffffffffffffffffffff1681526020019081526020016000206003018190555050565b600160009054906101000a900473ffffffffffffffffffffffffffffffffffffffff1673ffffffffffffffffffffffffffffffffffffffff163373ffffffffffffffffffffffffffffffffffffffff16141561111857600160009054906101000a900473ffffffffffffffffffffffffffffffffffffffff1673ffffffffffffffffffffffffffffffffffffffff16ff5b565b600a5481565b60006009600084815260200190815260200160002060050160008373ffffffffffffffffffffffffffffffffffffffff1673ffffffffffffffffffffffffffffffffffffffff16815260200190815260200160002060009054906101000a900460ff16905092915050565b6001600f60003373ffffffffffffffffffffffffffffffffffffffff1673ffffffffffffffffffffffffffffffffffffffff16815260200190815260200160002060000160016101000a81548160ff0219169083151502179055151561127f576040517f08c379a00000000000000000000000000000000000000000000000000000000081526004018080602001828103825260248152602001807f796f75206e65656420746f206265206120706f6c696379686f6c64657220666981526020017f727374210000000000000000000000000000000000000000000000000000000081525060400191505060405180910390fd5b6001600f60003373ffffffffffffffffffffffffffffffffffffffff1673ffffffffffffffffffffffffffffffffffffffff16815260200190815260200160002060000160006101000a81548160ff0219169083151502179055151561134d576040517f08c379a00000000000000000000000000000000000000000000000000000000081526004018080602001828103825260188152602001807f796f7520646f6e27742068617665206120706f6c69637921000000000000000081525060200191505060405180910390fd5b6000600f60003373ffffffffffffffffffffffffffffffffffffffff1673ffffffffffffffffffffffffffffffffffffffff16815260200190815260200160002060000160006101000a81548160ff021916908315150217905550600460008154809291906001900391905055507f6a15b4244525c6f0d6e94113f09044faaf2a31dedc4a6083ff52814c83f9a3e3600080333060405180806020018681526020018581526020018473ffffffffffffffffffffffffffffffffffffffff1673ffffffffffffffffffffffffffffffffffffffff1681526020018373ffffffffffffffffffffffffffffffffffffffff1673ffffffffffffffffffffffffffffffffffffffff168152602001828103825260128152602001807f706f6c69637943616e63656c6c6174696f6e00000000000000000000000000008152506020019550505050505060405180910390a1565b600080600b54600f60003373ffffffffffffffffffffffffffffffffffffffff1673ffffffffffffffffffffffffffffffffffffffff1681526020019081526020016000206003015442038115156114f257fe5b049150600a548202905061150581611ccc565b80600c600260038110151561151657fe5b016000828254019250508190555042600f60003373ffffffffffffffffffffffffffffffffffffffff1673ffffffffffffffffffffffffffffffffffffffff168152602001908152602001600020600301819055507f6a15b4244525c6f0d6e94113f09044faaf2a31dedc4a6083ff52814c83f9a3e3600082303360405180806020018681526020018581526020018473ffffffffffffffffffffffffffffffffffffffff1673ffffffffffffffffffffffffffffffffffffffff1681526020018373ffffffffffffffffffffffffffffffffffffffff1673ffffffffffffffffffffffffffffffffffffffff168152602001828103825260088152602001807f6469766964656e640000000000000000000000000000000000000000000000008152506020019550505050505060405180910390a15050565b600080600080600080600087600960008a815260200190815260200160002060010160009054906101000a900473ffffffffffffffffffffffffffffffffffffffff16600960008b815260200190815260200160002060010160149054906101000a900460ff16600960008c815260200190815260200160002060010160159054906101000a900460ff16600960008d815260200190815260200160002060020154600960008e815260200190815260200160002060030154600960008f8152602001908152602001600020600401549650965096509650965096509650919395979092949650565b60056000815480929190600101919050555060066000815480929190600101919050555060076005549080600181540180825580915050906001820390600052602060002001600090919290919091505550600554600960006005548152602001908152602001600020600001819055503360096000600554815260200190815260200160002060010160006101000a81548173ffffffffffffffffffffffffffffffffffffffff021916908373ffffffffffffffffffffffffffffffffffffffff160217905550600060096000600554815260200190815260200160002060010160146101000a81548160ff021916908315150217905550600060096000600554815260200190815260200160002060010160156101000a81548160ff0219169083151502179055508060096000600554815260200190815260200160002060020181905550600060096000600554815260200190815260200160002060030181905550600060096000600554815260200190815260200160002060040181905550600160096000600554815260200190815260200160002060050160003373ffffffffffffffffffffffffffffffffffffffff1673ffffffffffffffffffffffffffffffffffffffff16815260200190815260200160002060006101000a81548160ff0219169083151502179055507f6a15b4244525c6f0d6e94113f09044faaf2a31dedc4a6083ff52814c83f9a3e360055482333060405180806020018681526020018581526020018473ffffffffffffffffffffffffffffffffffffffff1673ffffffffffffffffffffffffffffffffffffffff1681526020018373ffffffffffffffffffffffffffffffffffffffff1673ffffffffffffffffffffffffffffffffffffffff168152602001828103825260088152602001807f6e6577436c61696d0000000000000000000000000000000000000000000000008152506020019550505050505060405180910390a150565b6000600860008373ffffffffffffffffffffffffffffffffffffffff1673ffffffffffffffffffffffffffffffffffffffff168152602001908152602001600020549050919050565b60006001600f60003373ffffffffffffffffffffffffffffffffffffffff1673ffffffffffffffffffffffffffffffffffffffff16815260200190815260200160002060000160016101000a81548160ff02191690831515021790551515611b4e576040517f08c379a00000000000000000000000000000000000000000000000000000000081526004018080602001828103825260248152602001807f796f75206e65656420746f206265206120706f6c696379686f6c64657220666981526020017f727374210000000000000000000000000000000000000000000000000000000081525060400191505060405180910390fd5b60649050611b5c308261215a565b80600c6000600381101515611b6d57fe5b01600082825401925050819055506001600f60003373ffffffffffffffffffffffffffffffffffffffff1673ffffffffffffffffffffffffffffffffffffffff16815260200190815260200160002060000160006101000a81548160ff0219169083151502179055506004600081548092919060010191905055507f6a15b4244525c6f0d6e94113f09044faaf2a31dedc4a6083ff52814c83f9a3e3600082303360405180806020018681526020018581526020018473ffffffffffffffffffffffffffffffffffffffff1673ffffffffffffffffffffffffffffffffffffffff1681526020018373ffffffffffffffffffffffffffffffffffffffff1673ffffffffffffffffffffffffffffffffffffffff1681526020018281038252600e8152602001807f706f6c69637950757263686173650000000000000000000000000000000000008152506020019550505050505060405180910390a150565b611cd7303383612a42565b50565b6000806000806000600f60008773ffffffffffffffffffffffffffffffffffffffff1673ffffffffffffffffffffffffffffffffffffffff16815260200190815260200160002060000160009054906101000a900460ff16600f60008873ffffffffffffffffffffffffffffffffffffffff1673ffffffffffffffffffffffffffffffffffffffff16815260200190815260200160002060000160019054906101000a900460ff16600f60008973ffffffffffffffffffffffffffffffffffffffff1673ffffffffffffffffffffffffffffffffffffffff16815260200190815260200160002060000160029054906101000a900460ff16600f60008a73ffffffffffffffffffffffffffffffffffffffff1673ffffffffffffffffffffffffffffffffffffffff16815260200190815260200160002060030154600f60008b73ffffffffffffffffffffffffffffffffffffffff1673ffffffffffffffffffffffffffffffffffffffff168152602001908152602001600020600401549450945094509450945091939590929450565b600160009054906101000a900473ffffffffffffffffffffffffffffffffffffffff1681565b60006060600654600780805480602002602001604051908101604052809291908181526020018280548015611ee557602002820191906000526020600020905b815481526020019060010190808311611ed1575b50505050509050915091509091565b600060016009600085815260200190815260200160002060010160146101000a81548160ff021916908315150217905550816009600085815260200190815260200160002060010160156101000a81548160ff02191690831515021790555060009050600115158215151415611f8757611f6d836127e5565b600960008481526020019081526020016000206002015490505b600960008481526020019081526020016000206000808201600090556001820160006101000a81549073ffffffffffffffffffffffffffffffffffffffff02191690556001820160146101000a81549060ff02191690556001820160156101000a81549060ff021916905560028201600090556003820160009055600482016000905550506006600081548092919060019003919050555060076001840381548110151561203157fe5b90600052602060002001600090557f6a15b4244525c6f0d6e94113f09044faaf2a31dedc4a6083ff52814c83f9a3e38382306009600088815260200190815260200160002060010160009054906101000a900473ffffffffffffffffffffffffffffffffffffffff1660405180806020018681526020018581526020018473ffffffffffffffffffffffffffffffffffffffff1673ffffffffffffffffffffffffffffffffffffffff1681526020018373ffffffffffffffffffffffffffffffffffffffff1673ffffffffffffffffffffffffffffffffffffffff1681526020018281038252600b8152602001807f636c61696d436c6f7365640000000000000000000000000000000000000000008152506020019550505050505060405180910390a1505050565b612165338383612a42565b5050565b60006009600083815260200190815260200160002060050160003373ffffffffffffffffffffffffffffffffffffffff1673ffffffffffffffffffffffffffffffffffffffff16815260200190815260200160002060009054906101000a900460ff169050919050565b600080600015156009600086815260200190815260200160002060050160003373ffffffffffffffffffffffffffffffffffffffff1673ffffffffffffffffffffffffffffffffffffffff16815260200190815260200160002060009054906101000a900460ff16151514151561224957600080fd5b60011515600f60003373ffffffffffffffffffffffffffffffffffffffff1673ffffffffffffffffffffffffffffffffffffffff16815260200190815260200160002060000160009054906101000a900460ff1615151415156122ab57600080fd5b60016009600086815260200190815260200160002060050160003373ffffffffffffffffffffffffffffffffffffffff1673ffffffffffffffffffffffffffffffffffffffff16815260200190815260200160002060006101000a81548160ff02191690831515021790555060008411801561232957506005548411155b151561233457600080fd5b600960008581526020019081526020016000206004016000815480929190600101919050555060011515831515141561238e5760096000858152602001908152602001600020600301600081548092919060010191905055505b8261239a57600061239d565b60015b60ff169150600f60003373ffffffffffffffffffffffffffffffffffffffff1673ffffffffffffffffffffffffffffffffffffffff16815260200190815260200160002060020160408051908101604052808681526020018481525090806001815401808255809150509060018203906000526020600020906002020160009091929091909150906002612432929190612d72565b50507f6a15b4244525c6f0d6e94113f09044faaf2a31dedc4a6083ff52814c83f9a3e3848333600060405180806020018681526020018581526020018473ffffffffffffffffffffffffffffffffffffffff1673ffffffffffffffffffffffffffffffffffffffff1681526020018373ffffffffffffffffffffffffffffffffffffffff1673ffffffffffffffffffffffffffffffffffffffff168152602001828103825260098152602001807f636c61696d566f746500000000000000000000000000000000000000000000008152506020019550505050505060405180910390a160096000858152602001908152602001600020600301546009600086815260200190815260200160002060040154039050600260096000868152602001908152602001600020600301541015801561259c57506002600960008681526020019081526020016000206003015460096000878152602001908152602001600020600401540311155b156125b1576125ac846001611ef4565b6125f6565b600260096000868152602001908152602001600020600301546009600087815260200190815260200160002060040154031015156125f5576125f4846000611ef4565b5b5b50505050565b60055481565b6060600f60008373ffffffffffffffffffffffffffffffffffffffff1673ffffffffffffffffffffffffffffffffffffffff168152602001908152602001600020600201805480602002602001604051908101604052809291908181526020016000905b828210156126c957838290600052602060002090600202016002806020026040519081016040528092919082600280156126b5576020028201915b8154815260200190600101908083116126a1575b505050505081526020019060010190612666565b505050509050919050565b6060600f60008373ffffffffffffffffffffffffffffffffffffffff1673ffffffffffffffffffffffffffffffffffffffff168152602001908152602001600020600101805480602002602001604051908101604052809291908181526020016000905b8282101561279b5783829060005260206000209060020201600280602002604051908101604052809291908260028015612787576020028201915b815481526020019060010190808311612773575b505050505081526020019060010190612738565b505050509050919050565b600c816003811015156127b557fe5b016000915090505481565b6000809054906101000a900473ffffffffffffffffffffffffffffffffffffffff1681565b6000806009600084815260200190815260200160002060010160009054906101000a900473ffffffffffffffffffffffffffffffffffffffff16915060096000848152602001908152602001600020600201549050612845308383612a42565b6001600f60008473ffffffffffffffffffffffffffffffffffffffff1673ffffffffffffffffffffffffffffffffffffffff16815260200190815260200160002060000160026101000a81548160ff021916908315150217905550600f60008373ffffffffffffffffffffffffffffffffffffffff1673ffffffffffffffffffffffffffffffffffffffff16815260200190815260200160002060010160408051908101604052808581526020018381525090806001815401808255809150509060018203906000526020600020906002020160009091929091909150906002612930929190612d72565b50507f6a15b4244525c6f0d6e94113f09044faaf2a31dedc4a6083ff52814c83f9a3e38382308560405180806020018681526020018581526020018473ffffffffffffffffffffffffffffffffffffffff1673ffffffffffffffffffffffffffffffffffffffff1681526020018373ffffffffffffffffffffffffffffffffffffffff1673ffffffffffffffffffffffffffffffffffffffff1681526020018281038252600c8152602001807f636c61696d5061796d656e7400000000000000000000000000000000000000008152506020019550505050505060405180910390a180600c6001600381101515612a2357fe5b0160008282540192505081905550505050565b60045481565b60025481565b80600860008573ffffffffffffffffffffffffffffffffffffffff1673ffffffffffffffffffffffffffffffffffffffff1681526020019081526020016000205410151515612af9576040517f08c379a000000000000000000000000000000000000000000000000000000000815260040180806020018281038252601c8152602001807f6e65656420656e6f75676820696e20796f7572206163636f756e74210000000081525060200191505060405180910390fd5b80600860008573ffffffffffffffffffffffffffffffffffffffff1673ffffffffffffffffffffffffffffffffffffffff1681526020019081526020016000205403600860008573ffffffffffffffffffffffffffffffffffffffff1673ffffffffffffffffffffffffffffffffffffffff1681526020019081526020016000208190555080600860008473ffffffffffffffffffffffffffffffffffffffff1673ffffffffffffffffffffffffffffffffffffffff1681526020019081526020016000205401600860008473ffffffffffffffffffffffffffffffffffffffff1673ffffffffffffffffffffffffffffffffffffffff168152602001908152602001600020819055508173ffffffffffffffffffffffffffffffffffffffff168373ffffffffffffffffffffffffffffffffffffffff167fddf252ad1be2c89b69c2b068fc378daa952ba7f163c4a11628f55a4df523b3ef836040518082815260200191505060405180910390a37f6a15b4244525c6f0d6e94113f09044faaf2a31dedc4a6083ff52814c83f9a3e3600082858560405180806020018681526020018581526020018473ffffffffffffffffffffffffffffffffffffffff1673ffffffffffffffffffffffffffffffffffffffff1681526020018373ffffffffffffffffffffffffffffffffffffffff1673ffffffffffffffffffffffffffffffffffffffff168152602001828103825260088152602001807f7472616e736665720000000000000000000000000000000000000000000000008152506020019550505050505060405180910390a1505050565b5080546000825560020290600052602060002090810190612d6f9190612db2565b50565b8260028101928215612da1579160200282015b82811115612da0578251825591602001919060010190612d85565b5b509050612dae9190612dde565b5090565b612ddb91905b80821115612dd75760008181612dce9190612e03565b50600201612db8565b5090565b90565b612e0091905b80821115612dfc576000816000905550600101612de4565b5090565b90565b5060008155600101600090555600a165627a7a7230582070c9398c80a24db7a2226fbf6d50dd6c4cd20d975d94e0e8f1b011661d04a7cb0029",
  "source": "pragma solidity 0.4.24;\r\n\r\n// next we add the ability to submit a claim and vote on claims submitted\r\n// votes attract sureCoins\r\n\r\n\r\ncontract blockChainMutual {\r\n  address public myself;\r\n  address public owner;\r\n  \r\n  //Store policyholder Count.. need this for an index on the address list\r\n  uint public policyholdersCount = 0;\r\n  \r\n  // a list of the policyholder Addresses\r\n  address[] policyholderList;\r\n  \r\n  uint public policyCount = 0;\r\n  // all claims filed\r\n  uint public claimsCount = 0;\r\n  // count of open claims, can just count the elements in js\r\n  uint public openClaimsCount = 0;\r\n  // open claims\r\n  \r\n  uint[] openClaims;\r\n  mapping(address => uint) public balances; // List of user balances.\r\n  // the listing of claims\r\n  mapping(uint=> claim) claimsListing;\r\n  uint public dividendAmount = 10;\r\n  uint public divBlockTime=60*60; // hours\r\n  // total premium, total claims, total dividends\r\n  uint[3] public portfolioData;\r\n  \r\n  struct claim {\r\n    uint id;\r\n    address submitter;\r\n    bool resolved; // whether the vote has happened\r\n    bool valid; // whether the claim is real\r\n    uint value; // amount claimed\r\n    uint votesFor; // votes in favor \r\n    uint votesCount; // all votes \r\n    mapping(address=>bool) voted; // the list of users that have voted on the claim\r\n  }\r\n  \r\n  // Constructor\r\n  \r\n  constructor () public {\r\n    owner = msg.sender;\r\n    uint decimals = 2;\r\n    uint INITIAL_SUPPLY = 1000000 * (10 ** decimals);    \r\n    balances[address(this)] = INITIAL_SUPPLY;\r\n    myself = address(this);\r\n  }\r\n  \r\n  event Transfer(address indexed from, address indexed to, uint value);\r\n  // record that we added or canceled a policy\r\n  event BCMevent(string eventType, uint id, uint value, address from, address to);\r\n  \r\n  \r\n  // the generalized version of the transfer. Only callable internally. \r\n  function transfer_g(address _from, address _to, uint _value) private {\r\n    require (balances[_from]>=_value, \"need enough in your account!\");\r\n    balances[_from] = balances[_from] - _value;\r\n    balances[_to] = balances[_to] + _value;\r\n    \r\n    emit Transfer(_from, _to, _value);\r\n    emit BCMevent('transfer', 0,_value, _from, _to);\r\n  }\r\n\r\n  \r\n  function transfer(address _to, uint _value) public {\r\n    transfer_g(msg.sender, _to, _value);\r\n  }\r\n  \r\n  function withdrawal(uint _value) public {\r\n    transfer_g(address(this), msg.sender, _value);\r\n  }\r\n  \r\n  function payClaim (uint _claimID) public {\r\n    address claimant = claimsListing[_claimID].submitter;\r\n    uint claimValue = claimsListing[_claimID].value;\r\n    transfer_g(address(this), claimant, claimValue);\r\n\r\n    // now they've had a claim\r\n    policyholders[claimant].claims=true;\r\n    // now we're adding the claim information to their data\r\n    policyholders[claimant].paidClaimsData.push([_claimID,claimValue]);\r\n    emit BCMevent('claimPayment', _claimID,claimValue, address(this), claimant);\r\n    portfolioData[1] += claimValue;\r\n    \r\n  }\r\n  \r\n  function balanceOf(address _owner) public constant returns (uint balance) {\r\n    return balances[_owner];\r\n  }\r\n  \r\n  // model a policy holder\r\n  struct policyholder {\r\n    bool current;\r\n    bool isExist;\r\n    bool claims;\r\n    uint[2][] paidClaimsData; // this will be claim number with value\r\n    uint[2][] votingRecord; // claimID with yes or no attached\r\n    uint lastDividendDate; // timestamp since last dividend\r\n    uint id; // index of the policyholder in the list of ids\r\n  }\r\n  \r\n  mapping(address=> policyholder) policyholders;\r\n  \r\n  \r\n  // going to need to accumulate a list of policyholders\r\n  // that will mean a policyholder ID number, so if we delete the policyholder\r\n  // we can remove it from the list, too\r\n  \r\n\r\n  function getPolicyholderList () public constant returns (address[]) {\r\n    return policyholderList;\r\n  }\r\n  \r\n  function getPolicyholderData (address addy) public constant returns (bool, bool, bool, uint, uint) {\r\n    return (policyholders[addy].current, policyholders[addy].isExist,\r\n\t    policyholders[addy].claims,policyholders[addy].lastDividendDate,policyholders[addy].id);\r\n  }\r\n  \r\n  function getPolicyholderVotingRecord (address addy) public constant returns (uint[2][]) {\r\n    return (policyholders[addy].votingRecord);\r\n  }\r\n  \r\n  function getPolicyholderClaimsData (address addy) public constant returns (uint[2][]) {\r\n    return (policyholders[addy].paidClaimsData);\r\n  }\r\n\r\n  function getPortfolioData () public constant returns (uint, uint, uint) {\r\n    return (portfolioData[0], portfolioData[1], portfolioData[2]);\r\n  }\r\n  \r\n  function buyPolicy () public {\r\n    \r\n    require(policyholders[msg.sender].isExist=true, \"you need to be a policyholder first!\");\r\n    //require(balanceOf(msg.sender) > 100, \"you need 100 coins!\");\r\n    uint cost = 100;\r\n    transfer(address(this), cost);\r\n    portfolioData[0] += cost;\r\n    policyholders[msg.sender].current=true;\r\n    policyCount ++;\r\n    \r\n    // type, id, value, from, to\r\n    emit BCMevent('policyPurchase', 0, cost,address(this),msg.sender );\r\n  }\r\n  \r\n  function cancelPolicy () public {\r\n    require(policyholders[msg.sender].isExist=true, \"you need to be a policyholder first!\");\r\n    require(policyholders[msg.sender].current=true, \"you don't have a policy!\");\r\n\r\n    policyholders[msg.sender].current=false;\r\n    policyCount --;\r\n    //delete inForcePolicyholders[msg.sender];\r\n    // type, id, value, from, to\r\n    emit BCMevent('policyCancellation', 0, 0,msg.sender,address(this));\r\n  }\r\n  \r\n  function addPolicyholder () public {\r\n    policyholdersCount ++;\r\n    policyholders[msg.sender].current=false;\r\n    policyholders[msg.sender].isExist=true;\r\n    balances[msg.sender] = 0;\r\n    // add an ID\r\n    policyholders[msg.sender].id=policyholdersCount;\r\n    policyholderList.push(msg.sender);\r\n    \r\n    emit BCMevent('addPolicyholder', policyholdersCount, 0,address(this),msg.sender);\r\n    uint initialBalance = 100;\r\n    withdrawal(initialBalance);\r\n    policyholders[msg.sender].lastDividendDate = block.timestamp;\r\n    \r\n    // type, id, value, from, to\r\n  }\r\n\r\n  function deletePolicyholder () public {\r\n    \r\n    // dump the coins back into the bank\r\n    transfer(address(this), balanceOf(msg.sender));\r\n\r\n    delete policyholderList[policyholders[msg.sender].id-1];\r\n    delete policyholders[msg.sender];\r\n    policyholdersCount --;\r\n    emit BCMevent('deletePolicyholder', 0, 0,msg.sender,address(this));\r\n  }\r\n  \r\n  function hasVoted (uint claimID, address id) public constant returns (bool){\r\n    return (claimsListing[claimID].voted[id]);\r\n  }\r\n  \r\n  function haveIVoted (uint claimID) public constant returns (bool){\r\n    return (claimsListing[claimID].voted[msg.sender]);\r\n  }\r\n  \r\n  function getClaim (uint claimID) public constant returns (uint, address, bool, bool, uint, uint, uint)  {\r\n    return (claimID, claimsListing[claimID].submitter,claimsListing[claimID].resolved,claimsListing[claimID].valid,\r\n\t    claimsListing[claimID].value,claimsListing[claimID].votesFor,claimsListing[claimID].votesCount); \r\n  }\r\n  \r\n  function getOpenClaims () public constant returns (uint, uint[])  {\r\n    return (openClaimsCount, openClaims); \r\n  }\r\n  \r\n  function submitClaim (uint _value) public  {\r\n    \r\n    claimsCount ++;\r\n    openClaimsCount ++;\r\n    \r\n    openClaims.push(claimsCount);    \r\n    claimsListing[claimsCount].id=claimsCount;\r\n    claimsListing[claimsCount].submitter=msg.sender;\r\n    claimsListing[claimsCount].resolved=false;\r\n    claimsListing[claimsCount].valid=false;\r\n    claimsListing[claimsCount].value=_value;\r\n    claimsListing[claimsCount].votesFor=0;\r\n    claimsListing[claimsCount].votesCount=0;\r\n    claimsListing[claimsCount].voted[msg.sender]=true; // so submitter can't vote!\r\n    \r\n    emit BCMevent('newClaim',claimsCount,_value,msg.sender, address(this));\r\n    // would be cool to put together an evaluation page that only the account ID holder can access.\r\n    // that will include the image and write-up of a submitted claim\r\n    // along with some policy information \r\n  }\r\n  \r\n  \r\n  function issueDividend () public {\r\n    // days since last dividend\r\n    uint divBlocks = (block.timestamp - policyholders[msg.sender].lastDividendDate)/(divBlockTime);\r\n    \r\n    //pull the cash\r\n    uint divAmt=divBlocks * dividendAmount;\r\n    withdrawal(divAmt);\r\n    \r\n    // update the account\r\n    portfolioData[2] += divAmt;\r\n    policyholders[msg.sender].lastDividendDate = block.timestamp;\r\n    emit BCMevent('dividend',0,divAmt, address(this),msg.sender);    \r\n    \r\n  }\r\n\r\n\r\n  /*\r\n  function catastrophe () public {\r\n    \r\n    // we should have some kind of catastrophic claim hit people, too.\r\n    // and have everyone in the pool eat the losses that spill over from\r\n    // this will need some kind of random element\r\n    // one person's bank\r\n\r\n    // if your pool gets wiped out, you loose.\r\n    // if your pool doesn't, your dividend rate bumps up\r\n\r\n  }\r\n  */\r\n  function claimVote (uint claimID, bool result) public {\r\n    // require that they haven't voted before\r\n    require(claimsListing[claimID].voted[msg.sender]==false); // this is a test of whether the address has voted\r\n    \r\n    // needs to be a policyholder!\r\n    require(policyholders[msg.sender].current==true);\r\n    \r\n    // record that voter has voted\r\n    claimsListing[claimID].voted[msg.sender]=true; \r\n    \r\n    // require a valid claim number\r\n    require(claimID > 0 && claimID <= claimsCount);\r\n    \r\n    // update candidate vote count\r\n    claimsListing[claimID].votesCount ++;\r\n    \r\n    // is it for or against?!\r\n    if (result == true){\r\n      claimsListing[claimID].votesFor ++;\r\n    }\r\n\r\n    uint voteResult = result ? 1 : 0;\r\n    policyholders[msg.sender].votingRecord.push([claimID,voteResult]);\r\n    \r\n    emit BCMevent('claimVote',claimID,voteResult,msg.sender,address(0));    \r\n    uint falseVotes;\r\n    falseVotes = claimsListing[claimID].votesCount-claimsListing[claimID].votesFor;\r\n    // if the number of positive votes is 2, we can close it down\r\n    if (claimsListing[claimID].votesFor >= 2 && (claimsListing[claimID].votesCount-claimsListing[claimID].votesFor) <= 2){\r\n      closeClaim(claimID, true);\r\n    }\r\n    \r\n    else if ((claimsListing[claimID].votesCount-claimsListing[claimID].votesFor) >=2){\r\n      closeClaim(claimID, false);\r\n      }\r\n  }\r\n  \r\n  function closeClaim  (uint claimID, bool result) public {\r\n    \tclaimsListing[claimID].resolved=true;\r\n\tclaimsListing[claimID].valid=result;\r\n\tuint value = 0;\r\n\tif (result == true) {\r\n\t  payClaim(claimID);\r\n\t  value=claimsListing[claimID].value;\r\n\t}\r\n\tdelete claimsListing[claimID];\r\n\topenClaimsCount --;\r\n\r\n\t// claim IDs start at 0\r\n\tdelete openClaims[claimID-1];\r\n\temit BCMevent('claimClosed',claimID,value,\r\n\t\t      address(this),claimsListing[claimID].submitter);\r\n  }\r\n  \r\n  // self destruct\r\n  function kill() public {\r\n    if(msg.sender == owner) selfdestruct(owner);\r\n  }\r\n\r\n}\r\n",
  "sourcePath": "C:\\Users\\davec\\projects\\sureCoin\\contracts\\blockchainmutual.sol",
  "compiler": {
    "name": "solc",
    "version": "0.4.24+commit.e67f0147.Emscripten.clang"
  },
  "schemaVersion": "2.0.1",
  "updatedAt": "2018-10-11T01:08:30.662Z"
}