{
  "contractName": "sureCoin",
  "abi": [
    {
      "inputs": [],
      "payable": false,
      "stateMutability": "nonpayable",
      "type": "constructor"
    },
    {
      "anonymous": false,
      "inputs": [
        {
          "indexed": true,
          "name": "from",
          "type": "address"
        },
        {
          "indexed": true,
          "name": "to",
          "type": "address"
        },
        {
          "indexed": false,
          "name": "value",
          "type": "uint256"
        }
      ],
      "name": "Transfer",
      "type": "event"
    },
    {
      "constant": false,
      "inputs": [
        {
          "name": "_to",
          "type": "address"
        },
        {
          "name": "_value",
          "type": "uint256"
        }
      ],
      "name": "transfer",
      "outputs": [],
      "payable": false,
      "stateMutability": "nonpayable",
      "type": "function"
    },
    {
      "constant": true,
      "inputs": [
        {
          "name": "_owner",
          "type": "address"
        }
      ],
      "name": "balanceOf",
      "outputs": [
        {
          "name": "balance",
          "type": "uint256"
        }
      ],
      "payable": false,
      "stateMutability": "view",
      "type": "function"
    }
  ],
  "bytecode": "0x608060405234801561001057600080fd5b5060008060008060007f73757265436f696e00000000000000000000000000000000000000000000000094507f53434f000000000000000000000000000000000000000000000000000000000093506002925082600a0a620f4240029150819050816000803373ffffffffffffffffffffffffffffffffffffffff1673ffffffffffffffffffffffffffffffffffffffff1681526020019081526020016000208190555050505050506102d8806100c86000396000f30060806040526004361061004c576000357c0100000000000000000000000000000000000000000000000000000000900463ffffffff16806370a0823114610051578063a9059cbb146100a8575b600080fd5b34801561005d57600080fd5b50610092600480360381019080803573ffffffffffffffffffffffffffffffffffffffff1690602001909291905050506100f5565b6040518082815260200191505060405180910390f35b3480156100b457600080fd5b506100f3600480360381019080803573ffffffffffffffffffffffffffffffffffffffff1690602001909291908035906020019092919050505061013d565b005b60008060008373ffffffffffffffffffffffffffffffffffffffff1673ffffffffffffffffffffffffffffffffffffffff168152602001908152602001600020549050919050565b806000803373ffffffffffffffffffffffffffffffffffffffff1673ffffffffffffffffffffffffffffffffffffffff16815260200190815260200160002054036000803373ffffffffffffffffffffffffffffffffffffffff1673ffffffffffffffffffffffffffffffffffffffff16815260200190815260200160002081905550806000808473ffffffffffffffffffffffffffffffffffffffff1673ffffffffffffffffffffffffffffffffffffffff16815260200190815260200160002054016000808473ffffffffffffffffffffffffffffffffffffffff1673ffffffffffffffffffffffffffffffffffffffff168152602001908152602001600020819055508173ffffffffffffffffffffffffffffffffffffffff163373ffffffffffffffffffffffffffffffffffffffff167fddf252ad1be2c89b69c2b068fc378daa952ba7f163c4a11628f55a4df523b3ef836040518082815260200191505060405180910390a350505600a165627a7a72305820ffe968392f84cd26a26995c2f0f7998bf6dfadcd7e08fc9ae4f20aab4fb9843d0029",
  "source": "pragma solidity 0.4.24;\r\n\r\n// will need to specify the original holder of tokens, initial supply, token name and symbol\r\n// Then we need a way for people to get the tokens\r\n// that will mean calling this token contract from the main contract body\r\n\r\n// add a policyholder by paying our tokens in\r\n// keep an array for each policyholder\r\n// last digit on each array is whether they're current\r\n\r\n// now we need to issue the ICO upon creation of the company\r\n// then we can put a button on there that says \"buy sureCoins\"\r\n// then we build the ability to pay for a policy with sureCoins\r\n\r\n// later we'll build in the simulator for policyholder performance\r\n// we can have someone log their email address.. is there a way to hash that so I can't even see it?\r\n\r\ncontract sureCoin  {\r\n\r\n  constructor () public {\r\n    bytes32 name = \"sureCoin\";\r\n    bytes32 symbol = \"SCO\";\r\n    uint decimals = 2;\r\n    // million coins\r\n    uint INITIAL_SUPPLY = 1000000 * (10 ** decimals);\r\n    uint totalSupply = INITIAL_SUPPLY;\r\n    balances[msg.sender] = INITIAL_SUPPLY;\r\n  }\r\n\r\n  mapping(address => uint) balances; // List of user balances.\r\n\r\n  event Transfer(address indexed from, address indexed to, uint value);\r\n\r\n  function transfer(address _to, uint _value) {\r\n    balances[msg.sender] = balances[msg.sender] - _value;\r\n    balances[_to] = balances[_to] + _value;\r\n\r\n    emit Transfer(msg.sender, _to, _value);\r\n  }\r\n    \r\n  function balanceOf(address _owner) constant returns (uint balance) {\r\n    return balances[_owner];\r\n  }\r\n}\r\n\r\ncontract blockChainMutual {\r\n\r\n  address public owner;\r\n  \r\n  // Constructor\r\n  constructor () public {\r\n    owner = msg.sender;\r\n    // send my coins to this contract\r\n    // do I even have them?\r\n  }\r\n  \r\n  \r\n  // model a policy holder\r\n  struct policyholder {\r\n    bool current;\r\n    bool isExist;\r\n  }\r\n\r\n  // this array will store the policyholders, including the current flag\r\n  mapping(address=> policyholder) public policyholders;\r\n  \r\n  //Store policyholder Count.. can't count it later in the blockchain\r\n  uint public policyholdersCount;\r\n  \r\n  function buyPolicy () private {\r\n    // check if policyholder exists\r\n\r\n    // this function looks to be blowing everything up..\r\n    // is there a way to make it a bit more efficient, perhaps by pushing a list. fewer operations, anyway\r\n    \r\n    if (policyholders[msg.sender].isExist) {\r\n      /// ugh this is harder than I want it to be.. maybe I'll revert to the prior code and just\r\n\r\n      //uint len = policyholders[msg.sender].length;\r\n      require(policyholders[msg.sender].current == false, \"you're already a policyholder!\");\r\n      \r\n      // policyholder is not current, make them current!\r\n      delete policyholders[msg.sender].current;\r\n      policyholders[msg.sender].current=true;\r\n      policyCount ++;\r\n      //delete inForcePolicyholders[msg.sender];\r\n      //inForcePolicyholders[msg.sender]=true;\r\n    }\r\n    else {\r\n      // policyholder doesn't exist, add him/her\r\n      addPolicyholder();\r\n      policyCount ++;\r\n      //inForcePolicyholders[msg.sender]=true;\r\n    }\r\n    emit policyEvent();\r\n  }\r\n  \r\n  function cancelPolicy () private {\r\n    \r\n    policyholders[msg.sender].current=false;\r\n    policyCount --;\r\n    //delete inForcePolicyholders[msg.sender];\r\n    emit policyEvent();\r\n  }\r\n  \r\n  uint public policyCount;\r\n  \r\n  function addPolicyholder () private {\r\n    policyholdersCount ++;\r\n    policyholders[msg.sender] = policyholder(true, true);\r\n    //inForcePolicyholders[msg.sender]=true;\r\n  }\r\n\r\n  \r\n  // store accounts that have voted\r\n  //mapping(address=> bool) public inForcePolicyholders;\r\n\r\n  // record that we added or canceled a policy\r\n  event policyEvent ();\r\n\r\n  // self destruct\r\n  function kill() public {\r\n    if(msg.sender == owner) selfdestruct(owner);\r\n  }\r\n\r\n}\r\n",
  "sourcePath": "C:\\Users\\davec\\projects\\sureCoin\\contracts\\blockchainmutual.sol",
  "compiler": {
    "name": "solc",
    "version": "0.4.24+commit.e67f0147.Emscripten.clang"
  },
  "schemaVersion": "2.0.1",
  "updatedAt": "2018-08-29T02:09:38.721Z"
}